:100000000C9463000C948B000C948B000C948B006C
:100010000C948B000C948B000C948B000C94560663
:100020000C948B000C948B000C948B000C948B0024
:100030000C948B000C948B000C948B000C948B0014
:100040000C9481040C948B000C94170A0C94650A90
:100050000C948B000C948B000C948B000C948B00F4
:100060000C948B000C948B000000000024002700EF
:100070002A0000000000250028002B0000000000DE
:1000800023002600290004040404040404040202DA
:100090000202020203030303030301020408102007
:1000A0004080010204081020010204081020000012
:1000B0000007000201000003040600000000000029
:1000C00000000200C80B11241FBECFEFD8E0DEBF36
:1000D000CDBF11E0A0E0B1E0E0E7FCE102C0059097
:1000E0000D92AC32B107D9F712E0ACE2B1E001C039
:1000F0001D92A639B107E1F710E0C6ECD0E004C0CC
:100100002297FE010E94320EC43CD107C9F70E941B
:10011000070A0C94AB000C940000FC018827992777
:10012000E89421912032E9F3293010F02E30C8F301
:100130002B3241F02D3239F4689404C00E94AE0095
:10014000820F911D219120532A30C0F31EF4909507
:1001500081959F4F0895F8940C94360E7AE0979FFE
:10016000902D879F802D910D112408952F923F92FD
:100170004F925F926F927F928F929F92AF92BF92B7
:10018000CF92DF92EF92FF920F931F93DF93CF9363
:10019000CDB7DEB76A970FB6F894DEBF0FBECDBFFE
:1001A0008091CC019091CD0101969093CD018093E7
:1001B000CC018D5B9240BCF11092CD011092CC012C
:1001C0000091BA011091BB018EE00E946905000FF9
:1001D000111F005A1E4FF801918380830091BA01CC
:1001E0001091BB018FE00E946905000F111F02589A
:1001F0001E4FF801918380830091BA011091BB01D9
:1002000080E10E946905000F111F04561E4FF8017E
:10021000918380838091BA019091BB010196909364
:10022000BB018093BA018091BA019091BB010F97F5
:100230000CF413C220E631E03E832D834EE751E0FB
:100240005C834B838CE991E09A838983B901DA015D
:100250007C01CC24DD2400E010E040E050E020E010
:1002600030E012C0FB0181919191BF01480F591FED
:100270008D919D91080F191FF701819191917F0137
:10028000C80ED91E2F5F3F4F2F3031055CF3BA01E6
:10029000882777FD8095982F0E94BD0C20E030E0E4
:1002A00040E751E40E94220C0E948A0C7B0170936B
:1002B000C1016093C001B801882777FD8095982F10
:1002C0000E94BD0C20E030E040E751E40E94220C87
:1002D0000E948A0C8B017093C3016093C201B60126
:1002E000882777FD8095982F0E94BD0C20E030E094
:1002F00040E751E40E94220C0E948A0C7093C501D1
:100300006093C4018824992418861F8244245524AC
:100310001A861986222433241C861B866624772499
:100320009701442737FD4095542F2D873E874F87EF
:10033000588B9801442737FD4095542F298B3A8BD1
:100340004B8B5C8B9B01442737FD4095542F2D8BA5
:100350003E8B4F8B588FD6C0ED81FE810190F0818E
:10036000E02DFA8FE98FBF01882777FD8095982FC0
:100370000E94BD0C5B016C016D857E858F8598891F
:100380000E94BD0C7B018C0126E636E646EA5FE35F
:100390000E94710D9B01AC01C601B5010E941E0CAB
:1003A0008823DCF4C801B70123E333E343E35FE3CD
:1003B0000E94710D9B01AC01C601B5010E946D0D3B
:1003C00018165CF42F813885498D5A8D240F351FFE
:1003D00038872F830894811C911CEB81FC8101904C
:1003E000F081E02DFA8FE98FBF01882777FD809596
:1003F000982F0E94BD0C5B016C0169897A898B89F9
:100400009C890E94BD0C7B018C0126E636E646EAFB
:100410005FE30E94710D9B01AC01C601B5010E9412
:100420001E0C8823DCF4C801B70123E333E343E364
:100430005FE30E94710D9B01AC01C601B5010E94F2
:100440006D0D18165CF429853A85498D5A8D240F57
:10045000351F3A8729870894411C511CE981FA818C
:100460000190F081E02DFA8FE98FBF01882777FD99
:100470008095982F0E94BD0C5B016C016D897E896F
:100480008F89988D0E94BD0C7B018C0126E636E693
:1004900046EA5FE30E94710D9B01AC01C601B50104
:1004A0000E941E0C8823DCF4C801B70123E333E368
:1004B00043E35FE30E94710D9B01AC01C601B501EE
:1004C0000E946D0D18165CF42B853C85498D5A8D64
:1004D000240F351F3C872B870894211C311C08945E
:1004E000611C711C89819A8102969A838983EB81B0
:1004F000FC813296FC83EB832D813E812E5F3F4F42
:100500003E832D833FE0631671040CF425CF809267
:10051000BA019092BB014092BC015092BD01209261
:10052000BE013092BF0170922D0160922C014F816B
:100530005885BA01882777FD8095982F0E94BD0CB9
:100540007B018C01B401882777FD8095982F0E944C
:10055000BD0C9B01AC01C801B7010E94220C0E9496
:100560008A0C7093C7016093C601E985FA85BF01C3
:10057000882777FD8095982F0E94BD0C7B018C0108
:10058000B201882777FD8095982F0E94BD0C9B01B2
:10059000AC01C801B7010E94220C0E948A0C709322
:1005A000C9016093C8012B853C85B901882777FD77
:1005B0008095982F0E94BD0C7B018C01B10188278A
:1005C00077FD8095982F0E94BD0C9B01AC01C8015E
:1005D000B7010E94220C0E948A0C7093CB01609399
:1005E000CA0184E792E060E071E00E94040A609131
:1005F000C6017091C70184E792E04AE050E00E9492
:10060000D20984E792E063E071E00E94040A6091FD
:10061000C8017091C90184E792E04AE050E00E946D
:10062000D20984E792E066E071E00E94040A6091DA
:10063000CA017091CB0184E792E04AE050E00E9449
:10064000D2091092BF011092BE011092BD0110920A
:10065000BC011092BB011092BA0184E792E00E94A3
:100660001E0B181619060CF0F4C084E792E00E94E5
:100670004F0B9C0190933301809332018634910596
:1006800019F08636910539F481E090E090933701B6
:100690008093360113C08434910519F08436910596
:1006A00091F482E090E09093370180933601E091DD
:1006B0003401F0913501E45BFE4F10821092350158
:1006C00010923401C6C08534910521F0853691051C
:1006D00009F0A1C01092370110923601E091340167
:1006E000F0913501E85CFE4F1082109235011092B6
:1006F000340188E391E00E948D008C0190932F01DA
:1007000080932E018CE491E00E948D009093310142
:100710008093300117FF04C010922F0110922E0118
:1007200080912E0190912F018958934134F088E8EF
:1007300093E190932F0180932E018091300190914D
:10074000310197FF04C01092310110923001809165
:100750003001909131018157974134F080E797E162
:10076000909331018093300184E792E069E071E079
:100770000E94040A609130017091310184E792E097
:100780004AE050E00E94D20984E792E068E171E01B
:100790000E94040A60912E0170912F0184E792E07B
:1007A0004AE050E00E94E5098CE061E00E94CA0541
:1007B00064E670E080E090E00E94D5046091300132
:1007C0007091310120912E0130912F01442737FD86
:1007D0004095542F8BE00E94B206609130017091D9
:1007E000310120912E0130912F01442737FD409592
:1007F000542F8AE00E94B20660912E0170912F0161
:10080000882777FD8095982F0E94D5048CE060E0C2
:100810000E94CA051EC08091360190913701813037
:10082000910541F48091340190913501FC01E45B24
:10083000FE4F09C0029769F480913401909135010F
:10084000FC01E85CFE4F2083019690933501809374
:1008500034016A960FB6F894DEBF0FBECDBFCF91BC
:10086000DF911F910F91FF90EF90DF90CF90BF909D
:10087000AF909F908F907F906F905F904F903F9040
:100880002F90089584E792E040E855E260E070E040
:100890000E94A00A8EE060E00E948B058FE060E07D
:1008A0000E948B0580E160E00E948B058BE061E097
:1008B0000E948B058AE061E00E948B058CE061E07C
:1008C0000E948B058EE060E00E94CA058FE060E028
:1008D0000E94CA0580E160E00E94CA058BE060E0EA
:1008E0000E94CA058AE060E00E94CA058CE060E0D0
:1008F0000E94CA0568EE73E080E090E00E94D50493
:1009000008951F920F920FB60F9211242F933F93C9
:100910004F935F936F937F938F939F93AF93BF9307
:100920002091D2013091D3014091D4015091D50151
:100930007091D601DA01C9010296A11DB11D672F80
:100940006A5F6D3730F06D57DA01C9010396A11D5A
:10095000B11D6093D6018093D2019093D301A093EF
:10096000D401B093D5018091CE019091CF01A09197
:10097000D001B091D1010196A11DB11D8093CE018E
:100980009093CF01A093D001B093D101BF91AF91CB
:100990009F918F917F916F915F914F913F912F9197
:1009A0000F900FBE0F901F9018959B01AC017FB761
:1009B000F8948091CE019091CF01A091D001B09197
:1009C000D10166B5A89B05C06F3F19F00196A11D26
:1009D000B11D7FBFBA2FA92F982F8827860F911D91
:1009E000A11DB11D63E0880F991FAA1FBB1F6A9547
:1009F000D1F7BC012DC0FFB7F8948091CE01909142
:100A0000CF01A091D001B091D101E6B5A89B05C05E
:100A1000EF3F19F00196A11DB11DFFBFBA2FA92FFD
:100A2000982F88278E0F911DA11DB11DE3E0880F1F
:100A3000991FAA1FBB1FEA95D1F7861B970B885EEB
:100A40009340C8F2215030404040504068517C4FA4
:100A5000211531054105510571F60895789484B545
:100A6000826084BD84B5816084BD85B5826085BDAA
:100A700085B5816085BDEEE6F0E080818160808390
:100A8000E1E8F0E010828081826080838081816073
:100A90008083E0E8F0E0808181608083E1EBF0E03A
:100AA000808184608083E0EBF0E0808181608083DE
:100AB000EAE7F0E0808184608083808182608083C7
:100AC0008081816080838081806880831092C100F2
:100AD0000895982F8E3008F09E50977080911A01DB
:100AE0008295880F880F807C892B80937C00809171
:100AF0007A00806480937A0080917A0086FDFCCF32
:100B00002091780040917900942F80E030E0282BEC
:100B1000392BC9010895CF93DF93482F50E0CA01C4
:100B200086569F4FFC0134914A575F4FFA018491DA
:100B3000882369F190E0880F991FFC01E859FF4F65
:100B4000A591B491FC01EE58FF4FC591D491662355
:100B500051F42FB7F8948C91932F909589238C930F
:100B6000888189230BC0623061F42FB7F8948C918F
:100B7000932F909589238C938881832B88832FBF13
:100B800006C09FB7F8948C91832B8C939FBFDF9105
:100B9000CF910895482F50E0CA0182559F4FFC0124
:100BA0002491CA0186569F4FFC0194914A575F4F8A
:100BB000FA013491332309F440C0222351F1233048
:100BC00071F0243028F42130A1F0223011F514C046
:100BD0002630B1F02730C1F02430D9F404C0809120
:100BE00080008F7703C0809180008F7D809380008C
:100BF00010C084B58F7702C084B58F7D84BD09C0D5
:100C00008091B0008F7703C08091B0008F7D80937A
:100C1000B000E32FF0E0EE0FFF1FEE58FF4FA5915D
:100C2000B4912FB7F894662321F48C919095892381
:100C300002C08C91892B8C932FBF0895813041F095
:100C4000813018F08230D1F409C010926E000895FE
:100C500080916F008D7F80936F0008958091700068
:100C60008D7F8093700081E08093B0008091B1000F
:100C7000887F84608093B1001092B30008951F9321
:100C8000182F80911B01811711F09FEF06C0E2EC35
:100C9000F0E094918FEF80931B01892F0E941E0634
:100CA000812F60E00E94CA051F9108951F920F9244
:100CB0000FB60F9211242F933F934F935F936F932F
:100CC0007F938F939F93AF93BF93EF93FF93809105
:100CD000E5019091E601A091E701B091E80100974C
:100CE000A105B10551F1E091E901F091EA0180819E
:100CF0009091EB01892780838091E5019091E60135
:100D0000A091E701B091E801181619061A061B0612
:100D1000C4F48091E5019091E601A091E701B091C2
:100D2000E8010197A109B1098093E5019093E601DB
:100D3000A093E701B093E80104C080911B010E94D9
:100D40003F06FF91EF91BF91AF919F918F917F915E
:100D50006F915F914F913F912F910F900FBE0F9028
:100D60001F9018952F923F925F926F927F928F9271
:100D70009F92AF92BF92CF92DF92EF92FF920F932A
:100D80001F93DF93CF9300D000D0CDB7DEB7A82F4D
:100D90001B0129833A834B835C8380911B018A1753
:100DA00021F4E2ECF0E0549082C08F3F09F0DAC108
:100DB000A0931B01E2ECF0E054902FEF521609F4DF
:100DC000D1C181E0581639F192E0591609F449C0B1
:100DD000552009F06CC014BC15BC84B5826084BD7C
:100DE00085B5816085BD2A2F30E0F901EA57FF4FB4
:100DF000E491F0E0EE0FFF1FEE58FF4F85919491C4
:100E00009093DC018093DB0126563F4FF9018491DA
:100E10008093DD014EC0109280001092810080917D
:100E2000810088608093810080918100816080933F
:100E300081002A2F30E0F901EA57FF4FE491F0E0FA
:100E4000EE0FFF1FEE58FF4F859194919093E301B1
:100E50008093E20126563F4FF90184918093E4018B
:100E600028C01092B0001092B1008091B000826052
:100E70008093B0008091B10081608093B1002A2FEF
:100E800030E0F901EA57FF4FE491F0E0EE0FFF1F69
:100E9000EE58FF4F859194919093EA018093E90178
:100EA00026563F4FF90184918093EB0102C057FC15
:100EB00059C18A2F61E00E948B05552021F0F2E094
:100EC0005F1609F0BEC031018824992460E079E002
:100ED0008DE390E0A40193010E94150E59016A016F
:100EE000860175010894E108F108010911092FEF45
:100EF000E216F1040105110509F008F499C060E259
:100F000071EA87E090E0A40193010E94150E790137
:100F10008A010894E108F1080109110982E05816D4
:100F2000C1F49FEFE916F1040105110509F008F479
:100F300084C068E478EE81E090E0A40193010E940F
:100F4000150E79018A010894E108F10801091109D7
:100F500083E0AFEFEA16F1040105110509F008F48A
:100F600068C064E274EF80E090E0A40193010E9405
:100F7000150E79018A010894E108F10801091109A7
:100F8000552011F483E01DC0B2E05B1611F084E03F
:100F900018C0EFEFEE16F1040105110509F008F491
:100FA000DFC062E17AE780E090E0A40193010E9453
:100FB000150E79018A010894E108F1080109110967
:100FC00085E0FFEFEF16F1040105110591F188F1BD
:100FD00069E07DE380E090E0A40193010E94150E9A
:100FE00079018A010894E108F108010911095520E5
:100FF00011F086E001C084E02FEFE216F104010554
:101000001105B9F0B0F0C601B50120E034E040E0D0
:1010100050E00E94150E79018A010894E108F10858
:1010200001091109552011F087E008C085E003C0CF
:1010300081E0552019F485BD3AC082E08093B1006B
:1010400036C05101CC24DD2460E079E08DE390E0EE
:10105000A60195010E94150E79018A010894E10804
:10106000F1080109110980E0E81680E0F80681E046
:10107000080780E0180710F491E010C064E274EFF4
:1010800080E090E0A60195010E94150E79018A0189
:101090000894E108F1080109110993E0A1E05A164A
:1010A00031F480918100887F982B90938100898111
:1010B0009A81AB81BC810097A105B10529F48FEF1E
:1010C0009FEFAFEFBFEF13C0220C331CB10180E0E4
:1010D00090E029813A814B815C810E94D40D28EEF9
:1010E00033E040E050E00E94F30DC901DA01E1E095
:1010F0005E16A1F0F2E05F1619F1552099F5E7BCF4
:101100008093D7019093D801A093D901B093DA01CD
:1011100080916E00826080936E0024C0F0928900FE
:10112000E09288008093DE019093DF01A093E001BC
:10113000B093E10180916F00826080936F0012C0D4
:10114000E092B3008093E5019093E601A093E7015C
:10115000B093E8018091700082608093700002C0BB
:1011600084E06CCF0F900F900F900F90CF91DF9194
:101170001F910F91FF90EF90DF90CF90BF90AF90B5
:101180009F908F907F906F905F903F902F900895E9
:10119000CF92DF92EF92FF920F931F93CF93DF9343
:1011A0007C016B018A01C0E0D0E00FC0D6016D91D7
:1011B0006D01D701ED91FC910190F081E02DC70107
:1011C0000995C80FD91F015010400115110571F77D
:1011D000CE01DF91CF911F910F91FF90EF90DF90A3
:1011E000CF900895EF92FF920F931F938C01DC0133
:1011F000ED91FC910190F081E02D6DE009957C016D
:10120000D801ED91FC910190F081E02DC8016AE0D8
:1012100009959C012E0D3F1DC9011F910F91FF9053
:10122000EF900895CF93DF93EC016115710519F4E8
:1012300020E030E00FC0DB010D900020E9F71197AE
:10124000A61BB70BE881F9810280F381E02DAD0187
:1012500009959C01C901DF91CF9108954F925F924A
:101260007F928F929F92AF92BF92CF92DF92EF9236
:10127000FF920F931F93DF93CF93CDB7DEB7A19764
:101280000FB6F894DEBF0FBECDBF2C01742ECB017C
:10129000223008F42AE019A231E2C32ED12CCC0E60
:1012A000DD1E822E9924AA24BB24672D752FA5014B
:1012B00094010E94F30D79018A01C801B701A501CB
:1012C00094010E94D40D472D461B0894C108D108F3
:1012D0004A3014F4405D01C0495CF6014083E114DA
:1012E000F1040105110521F07E2C5F2DC801DDCF31
:1012F000C201B6010E941209A1960FB6F894DEBF92
:101300000FBECDBFCF91DF911F910F91FF90EF9056
:10131000DF90CF90BF90AF909F908F907F905F9025
:101320004F900895CF92DF92EF92FF920F931F9309
:10133000CF93DF93EC016A017B012115310541F464
:10134000E881F9810190F081E02D642F09951FC09B
:101350002A303105D1F477FF17C0E881F981019077
:10136000F081E02D6DE209958C0144275527BA01E3
:101370004C195D096E097F09CE012AE00E942E09F1
:101380009801280F391F04C02AE00E942E099C01F1
:10139000C901DF91CF911F910F91FF90EF90DF90E6
:1013A000CF900895EF92FF920F931F937B019A01C4
:1013B0000027F7FC0095102FB801A7010E949209A1
:1013C0001F910F91FF90EF900895CF92DF92EF92CF
:1013D000FF920F931F936C017B019A010027F7FC8A
:1013E0000095102FB801A7010E9492098C01C60137
:1013F0000E94F208080F191FC8011F910F91FF905A
:10140000EF90DF90CF9008950E9412090895CF9336
:10141000DF930E942E050E944204C2E5DAE00E949A
:10142000B6002097E1F30E94520AF9CF08951F9267
:101430000F920FB60F9211242F933F934F938F93D8
:101440009F93EF93FF938091C00082FD1DC0409158
:10145000C60020912C0230912D022F5F3F4F2F7339
:10146000307080912E0290912F022817390771F069
:10147000E0912C02F0912D02E451FE4F4083309315
:101480002D0220932C0202C08091C600FF91EF91A3
:101490009F918F914F913F912F910F900FBE0F9081
:1014A0001F901895E0918002F0918102E05CFF4F5F
:1014B0008191919120813181821B930B8F73907068
:1014C000892B11F00E94160A08951F920F920FB6F1
:1014D0000F9211242F933F938F939F93EF93FF933A
:1014E000209170023091710280917202909173028A
:1014F0002817390731F48091C1008F7D8093C10096
:1015000014C0E0917202F0917302E05DFD4F208102
:10151000809172029091730201968F7390709093F4
:101520007302809372022093C600FF91EF919F9106
:101530008F913F912F910F900FBE0F901F90189594
:10154000AF92BF92DF92EF92FF920F931F93CF93D0
:10155000DF93EC017A018B01DD24D39491E0A92E75
:10156000B12CEC89FD89DD2069F0C50108A002C01D
:10157000880F991F0A94E2F7808360E874E88EE18F
:1015800090E005C0108260E472E48FE090E0A80172
:1015900097010E94F30D2150304040405040569535
:1015A00047953795279580E12030380720F0DD20DA
:1015B00011F0DD24D6CFE889F9893083EA89FB89E7
:1015C000208319A2EE89FF89408121E030E0C90122
:1015D0000C8C02C0880F991F0A94E2F7482B4083B5
:1015E000EE89FF894081C9010D8C02C0880F991FC7
:1015F0000A94E2F7482B4083EE89FF894081C901B4
:101600000E8C02C0880F991F0A94E2F7482B408382
:10161000EE89FF8980810F8C02C0220F331F0A944C
:10162000E2F7209528232083DF91CF911F910F911E
:10163000FF90EF90DF90BF90AF900895DC011C9673
:10164000ED91FC911D97E05CFF4F219131918081DC
:101650009181281B390B2F733070C9010895DC016B
:101660001C96ED91FC911D97E05CFF4F208131812C
:10167000E054F040DF01AE5BBF4F8D919C9111971C
:101680002817390719F42FEF3FEF07C08D919C9170
:10169000E80FF91F8081282F30E0C9010895DC018F
:1016A0001C96ED91FC911D97E05CFF4F20813181EC
:1016B000E054F040DF01AE5BBF4F8D919C911197DC
:1016C0002817390719F42FEF3FEF10C08D919C9127
:1016D0001197E80FF91F20818D919C911197019628
:1016E0008F73907011969C938E9330E0C90108958A
:1016F000DC0191968C919197882339F05496ED9165
:10170000FC915597808186FFF9CF91961C920895A0
:10171000CF93DF93EC01EE85FF85E05CFF4F2081E6
:101720003181E054F0402F5F3F4F2F733070DF0165
:10173000AE5BBF4F8D919C91119728173907D1F35C
:10174000E05CFF4F80819181E054F040E80FF91F89
:101750006083EE85FF85E05CFF4F31832083EE8957
:10176000FF89208181E090E00F8C02C0880F991FD3
:101770000A94E2F7282B208381E089A3EC89FD8974
:1017800080818064808381E090E0DF91CF91089533
:10179000109277021092760288EE93E0A0E0B0E01B
:1017A0008093780290937902A0937A02B0937B029F
:1017B00080E291E090937502809374028CEE91E048
:1017C000909381028093800280E392E09093830261
:1017D0008093820285EC90E090938502809384024E
:1017E00084EC90E0909387028093860280EC90E0F6
:1017F000909389028093880281EC90E090938B0211
:1018000080938A0282EC90E090938D0280938C0208
:1018100086EC90E090938F0280938E0284E0809318
:10182000900283E08093910287E08093920285E0AA
:101830008093930281E0809394020895D9D008F4B4
:1018400081E008950CD00FC107D140F0FED030F0F8
:1018500021F45F3F19F0F0C0511139C1F3C014D128
:1018600098F39923C9F35523B1F3951B550BBB2767
:10187000AA2762177307840738F09F5F5F4F220F14
:10188000331F441FAA1FA9F333D00E2E3AF0E0E80D
:1018900030D091505040E695001CCAF729D0FE2F59
:1018A00027D0660F771F881FBB1F261737074807EB
:1018B000AB07B0E809F0BB0B802DBF01FF279358A1
:1018C0005F4F2AF09E3F510568F0B6C000C15F3FF0
:1018D000ECF3983EDCF3869577956795B795F79589
:1018E0009F5FC9F7880F911D9695879597F9089581
:1018F000E1E0660F771F881FBB1F6217730784071D
:10190000BA0720F0621B730B840BBA0BEE1F88F72B
:10191000E095089504D06894B111D9C00895BCD061
:1019200088F09F5790F0B92F9927B751A0F0D1F0C8
:10193000660F771F881F991F1AF0BA95C9F712C052
:10194000B13081F0C3D0B1E00895C0C0672F782FC7
:101950008827B85F39F0B93FCCF3869577956795BE
:10196000B395D9F73EF490958095709561957F4F2A
:101970008F4F9F4F0895E89409C097FB3EF49095D0
:101980008095709561957F4F8F4F9F4F9923A9F058
:10199000F92F96E9BB279395F695879577956795E7
:1019A000B795F111F8CFFAF4BB0F11F460FF1BC02B
:1019B0006F5F7F4F8F4F9F4F16C0882311F096E9BE
:1019C00011C0772321F09EE8872F762F05C066236C
:1019D00071F096E8862F70E060E02AF09A95660F25
:1019E000771F881FDAF7880F9695879597F90895DE
:1019F000990F0008550FAA0BE0E8FEEF1616170620
:101A0000E807F907C0F012161306E407F50798F087
:101A1000621B730B840B950B39F40A2661F0232BA0
:101A2000242B252B21F408950A2609F4A140A6951C
:101A30008FEF811D811D089597F99F6780E870E001
:101A400060E008959FEF80EC089500240A94161634
:101A5000170618060906089500240A94121613069C
:101A6000140605060895092E0394000C11F488232A
:101A700052F0BB0F40F4BF2B11F460FF04C06F5F46
:101A80007F4F8F4F9F4F089557FD9058440F551F1C
:101A900059F05F3F71F04795880F97FB991F61F0F0
:101AA0009F3F79F087950895121613061406551F67
:101AB000F2CF4695F1DF08C0161617061806991FD3
:101AC000F1CF86957105610508940895E894BB27C8
:101AD00066277727CB0197F908958ADF08F48FEFFF
:101AE00008950BD0C0CFB1DF28F0B6DF18F09523F2
:101AF00009F0A2CFA7CF1124EACFC6DFA0F3959FAC
:101B0000D1F3950F50E0551F629FF001729FBB27E4
:101B1000F00DB11D639FAA27F00DB11DAA1F649F90
:101B20006627B00DA11D661F829F2227B00DA11D43
:101B3000621F739FB00DA11D621F839FA00D611DC9
:101B4000221F749F3327A00D611D231F849F600DEA
:101B5000211D822F762F6A2F11249F5750408AF023
:101B6000E1F088234AF0EE0FFF1FBB1F661F771FAF
:101B7000881F91505040A9F79E3F510570F05CCFEF
:101B8000A6CF5F3FECF3983EDCF38695779567959B
:101B9000B795F795E7959F5FC1F7FE2B880F911DCD
:101BA0009695879597F90895629FD001739FF001EC
:101BB000829FE00DF11D649FE00DF11D929FF00DDD
:101BC000839FF00D749FF00D659FF00D9927729F14
:101BD000B00DE11DF91F639FB00DE11DF91FBD019F
:101BE000CF0111240895A1E21A2EAA1BBB1BFD01EF
:101BF0000DC0AA1FBB1FEE1FFF1FA217B307E407EC
:101C0000F50720F0A21BB30BE40BF50B661F771F43
:101C1000881F991F1A9469F7609570958095909523
:101C20009B01AC01BD01CF01089597FB092E05264C
:101C30000ED057FD04D0D7DF0AD0001C38F45095E1
:101C40004095309521953F4F4F4F5F4F0895F6F7E0
:101C500090958095709561957F4F8F4F9F4F089518
:101C6000EE0FFF1F0590F491E02D0994F894FFCF3B
:101C70003A50003A42003A4D00506C6179696E6703
:101C800020736F756E642000200001FF00000000CB
:0C1C9000880BC8081E0B4F0B2F0B780BA5
:00000001FF
