:100000000C9463000C948B000C948B000C948B006C
:100010000C948B000C948B000C948B000C94470573
:100020000C948B000C948B000C948B000C948B0024
:100030000C948B000C948B000C948B000C948B0014
:100040000C947E030C948B000C9408090C945609B4
:100050000C948B000C948B000C948B000C948B00F4
:100060000C948B000C948B000000000024002700EF
:100070002A0000000000250028002B0000000000DE
:1000800023002600290004040404040404040202DA
:100090000202020203030303030301020408102007
:1000A0004080010204081020010204081020000012
:1000B0000007000201000003040600000000000029
:1000C00000000200C20A11241FBECFEFD8E0DEBF3D
:1000D000CDBF11E0A0E0B1E0E4E6FAE102C0059096
:1000E0000D92AA32B107D9F712E0AAE2B1E001C03D
:1000F0001D92A037B107E1F710E0C6ECD0E004C0D4
:100100002297FE010E942C0DC43CD107C9F70E9422
:10011000F8080C94AB000C940000FC018827992788
:10012000E89421912032E9F3293010F02E30C8F301
:100130002B3241F02D3239F4689404C00E94AE0095
:10014000820F911D219120532A30C0F31EF4909507
:1001500081959F4F0895F8940C94300D7AE0979F05
:10016000902D879F802D910D112408952F923F92FD
:100170004F925F926F927F928F929F92AF92BF92B7
:10018000CF92DF92EF92FF920F931F93DF93CF9363
:10019000CDB7DEB760970FB6F894DEBF0FBECDBF08
:1001A0008091A6019091A70101969093A701809359
:1001B000A6018D5B92404CF11092A7011092A6010E
:1001C00000919A0110919B018EE00E945A04000F49
:1001D000111F025A1E4FF8019183808300919A01EA
:1001E00010919B018FE00E945A04000F111F0458C8
:1001F0001E4FF8019183808380919A0190919B0119
:10020000019690939B0180939A0180919A0190911D
:100210009B010F970CF460C12EE531E03C832B83EA
:100220004CE751E05A834983D901BA01EE24FF24F7
:1002300040E050E020E030E00CC08D919D91480FEF
:10024000591FFB0181919191BF01E80EF91E2F5FAB
:100250003F4F2F3031058CF3BA01882777FD809509
:10026000982F0E94B70B20E030E040E751E40E9455
:100270001C0B0E94840B8B0170939F0160939E0165
:10028000B701882777FD8095982F0E94B70B20E053
:1002900030E040E751E40E941C0B0E94840B7093F5
:1002A000A1016093A001188A1F86222433246624AA
:1002B00077241E821D82882499249801442737FDC3
:1002C0004095542F2F83388749875A879B014427AD
:1002D00037FD4095542F2B873C874D875E8785C01F
:1002E000EB81FC8140805180B201882777FD8095A9
:1002F000982F0E94B70B5B016C016F81788589850F
:100300009A850E94B70B7B018C0126E636E646EA09
:100310005FE30E946B0C9B01AC01C601B5010E941A
:10032000180B8823C4F4C801B70123E333E343E384
:100330005FE30E946B0C9B01AC01C601B5010E94FA
:10034000670C181644F4240C351C2F8538892F5F50
:100350003F4F388B2F87E981FA8140805180B2016D
:10036000882777FD8095982F0E94B70B5B016C0161
:100370006B857C858D859E850E94B70B7B018C01EA
:1003800026E636E646EA5FE30E946B0C9B01AC0171
:10039000C601B5010E94180B8823CCF4C801B7012F
:1003A00023E333E343E35FE30E946B0C9B01AC0167
:1003B000C601B5010E94670C18164CF42D813E81D0
:1003C000240D351D3E832D830894611C711C0894F7
:1003D000811C911C49815A814E5F5F4F5A8349832A
:1003E0008B819C8102969C838B839FE0891691046C
:1003F0000CF476CFEF85E0939A01F889F0939B0196
:1004000060929C0170929D0190922B0180922A0132
:10041000B101882777FD8095982F0E94B70B7B014B
:100420008C012F853889B901882777FD8095982F11
:100430000E94B70B9B01AC01C801B7010E941C0BC5
:100440000E94840B7093A3016093A2014D815E8191
:10045000BA01882777FD8095982F0E94B70B7B0102
:100460008C01B301882777FD8095982F0E94B70BE8
:100470009B01AC01C801B7010E941C0B0E94840BB8
:100480007093A5016093A4018EE492E060E071E0B6
:100490000E94F5086091A2017091A3018EE492E0A0
:1004A0004AE050E00E94C3088EE492E063E071E00D
:1004B0000E94F5086091A4017091A5018EE492E07C
:1004C0004AE050E00E94C30810929B0110929A01EA
:1004D00010929D0110929C018EE492E00E94180AF5
:1004E000181619060CF0CAC08EE492E00E94490A60
:1004F0009C0190933101809330018634910519F06D
:100500008636910539F481E090E09093350180932F
:10051000340113C08434910519F08436910591F4A7
:1005200082E090E09093350180933401E0913201B4
:10053000F0913301E65BFE4F10821092330110926E
:1005400032019CC08534910521F08536910509F072
:1005500077C01092350110923401E0913201F09190
:100560003301EA5CFE4F1082109233011092320187
:1005700086E391E00E948D008C0190932D01809381
:100580002C018AE491E00E948D009C0190932F0140
:1005900080932E0117FF04C010922D0110922C01A0
:1005A00080912C0190912D018958934134F088E875
:1005B00093E190932D0180932C0137FF04C010929A
:1005C0002F0110922E0180912E0190912F018157C1
:1005D000974134F080E797E190932F0180932E01AB
:1005E0008EE492E066E071E00E94F50860912E01D1
:1005F00070912F018EE492E04AE050E00E94C3081F
:100600008EE492E065E171E00E94F50860912C01B2
:1006100070912D018EE492E04AE050E00E94D608ED
:1006200060912E0170912F0120912C0130912D01AC
:10063000442737FD4095542F8BE00E94A3051EC030
:1006400080913401909135018130910541F4809180
:10065000320190913301FC01E65BFE4F09C0029725
:1006600069F48091320190913301FC01EA5CFE4F04
:1006700020830196909333018093320160960FB6E8
:10068000F894DEBF0FBECDBFCF91DF911F910F91C8
:10069000FF90EF90DF90CF90BF90AF909F908F90A2
:1006A0007F906F905F904F903F902F9008958EE4D1
:1006B00092E040E855E260E070E00E9491098EE02F
:1006C00060E00E947C048FE060E00E947C048BE08C
:1006D00061E00E947C048EE060E00E94BB048FE039
:1006E00060E00E94BB048BE060E00E94BB0468EE07
:1006F00073E080E090E00E94C60308951F920F927D
:100700000FB60F9211242F933F938F939F93AF9324
:10071000BF938091AC019091AD01A091AE01B091D9
:10072000AF013091B0010196A11DB11D232F2D5FA6
:100730002D3720F02D570196A11DB11D2093B0013A
:100740008093AC019093AD01A093AE01B093AF0143
:100750008091A8019091A901A091AA01B091AB014B
:100760000196A11DB11D8093A8019093A901A093AA
:10077000AA01B093AB01BF91AF919F918F913F912F
:100780002F910F900FBE0F901F9018959B01AC01F9
:100790007FB7F8948091A8019091A901A091AA0136
:1007A000B091AB0166B5A89B05C06F3F19F00196EB
:1007B000A11DB11D7FBFBA2FA92F982F8827860FA3
:1007C000911DA11DB11D62E0880F991FAA1FBB1FBB
:1007D0006A95D1F7BC012DC0FFB7F8948091A801AC
:1007E0009091A901A091AA01B091AB01E6B5A89B97
:1007F00005C0EF3F19F00196A11DB11DFFBFBA2F33
:10080000A92F982F88278E0F911DA11DB11DE2E001
:10081000880F991FAA1FBB1FEA95D1F7861B970B5C
:10082000885E9340C8F221503040404050406851AB
:100830007C4F211531054105510571F608957894D5
:1008400084B5826084BD84B5816084BD85B58260D5
:1008500085BD85B5816085BDEEE6F0E08081816073
:100860008083E1E8F0E01082808182608083808173
:1008700081608083E0E8F0E0808181608083E1EB4B
:10088000F0E0808184608083E0EBF0E08081816033
:100890008083EAE7F0E080818460808380818260E9
:1008A00080838081816080838081806880831092D2
:1008B000C1000895982F8E3008F09E509770809157
:1008C00017018295880F880F807C892B80937C008C
:1008D00080917A00806480937A0080917A0086FD0E
:1008E000FCCF2091780040917900942F80E030E097
:1008F000282B392BC9010895CF93DF93482F50E05F
:10090000CA0186569F4FFC0134914A575F4FFA0146
:100910008491882369F190E0880F991FFC01E859C0
:10092000FF4FA591B491FC01EE58FF4FC591D491B2
:10093000662351F42FB7F8948C91932F90958923C7
:100940008C93888189230BC0623061F42FB7F894AF
:100950008C91932F909589238C938881832B888306
:100960002FBF06C09FB7F8948C91832B8C939FBFA9
:10097000DF91CF910895482F50E0CA0182559F4FD3
:10098000FC012491CA0186569F4FFC0194914A575D
:100990005F4FFA013491332309F440C0222351F10F
:1009A000233071F0243028F42130A1F0223011F5E9
:1009B00014C02630B1F02730C1F02430D9F404C07F
:1009C000809180008F7703C0809180008F7D80931D
:1009D000800010C084B58F7702C084B58F7D84BD40
:1009E00009C08091B0008F7703C08091B0008F7DE7
:1009F0008093B000E32FF0E0EE0FFF1FEE58FF4FA3
:100A0000A591B4912FB7F894662321F48C91909519
:100A1000892302C08C91892B8C932FBF089581303C
:100A200041F0813018F08230D1F409C010926E008C
:100A3000089580916F008D7F80936F00089580915D
:100A400070008D7F8093700081E08093B000809172
:100A5000B100887F84608093B1001092B300089544
:100A60001F93182F80911801811711F09FEF06C076
:100A7000E2ECF0E094918FEF80931801892F0E94AF
:100A80000F05812F60E00E94BB041F9108951F9203
:100A90000F920FB60F9211242F933F934F935F93B2
:100AA0006F937F938F939F93AF93BF93EF93FF9336
:100AB0008091BF019091C001A091C101B091C2018C
:100AC0000097A105B10551F1E091C301F091C40176
:100AD00080819091C501892780838091BF01909189
:100AE000C001A091C101B091C201181619061A06E1
:100AF0001B06C4F48091BF019091C001A091C10177
:100B0000B091C2010197A109B1098093BF019093EF
:100B1000C001A093C101B093C20104C0809118012B
:100B20000E943005FF91EF91BF91AF919F918F91FE
:100B30007F916F915F914F913F912F910F900FBED9
:100B40000F901F9018952F923F925F926F927F9215
:100B50008F929F92AF92BF92CF92DF92EF92FF92CD
:100B60000F931F93DF93CF9300D000D0CDB7DEB7A4
:100B7000A82F1B0129833A834B835C838091180142
:100B80008A1721F4E2ECF0E0549082C08F3F09F024
:100B9000DAC1A0931801E2ECF0E054902FEF521666
:100BA00009F4D1C181E0581639F192E0591609F4DF
:100BB00049C0552009F06CC014BC15BC84B58260D6
:100BC00084BD85B5816085BD2A2F30E0F901EA57E3
:100BD000FF4FE491F0E0EE0FFF1FEE58FF4F8591BD
:100BE00094919093B6018093B50126563F4FF90139
:100BF00084918093B7014EC01092800010928100C2
:100C00008091810088608093810080918100816063
:100C1000809381002A2F30E0F901EA57FF4FE491D9
:100C2000F0E0EE0FFF1FEE58FF4F859194919093E7
:100C3000BD018093BC0126563F4FF90184918093FA
:100C4000BE0128C01092B0001092B1008091B00097
:100C500082608093B0008091B10081608093B10088
:100C60002A2F30E0F901EA57FF4FE491F0E0EE0F50
:100C7000FF1FEE58FF4F859194919093C40180938C
:100C8000C30126563F4FF90184918093C50102C0EC
:100C900057FC59C18A2F61E00E947C04552021F045
:100CA000F2E05F1609F0BEC031018824992460E0AB
:100CB00072E18AE790E0A40193010E940F0D5901AF
:100CC0006A01860175010894E108F108010911091A
:100CD0002FEFE216F1040105110509F008F499C09F
:100CE00060E472E48FE090E0A40193010E940F0D94
:100CF00079018A010894E108F1080109110982E0EB
:100D00005816C1F49FEFE916F1040105110509F029
:100D100008F484C060E970ED83E090E0A4019301E1
:100D20000E940F0D79018A010894E108F108010978
:100D3000110983E0AFEFEA16F1040105110509F08E
:100D400008F468C068E478EE81E090E0A4019301C3
:100D50000E940F0D79018A010894E108F108010948
:100D60001109552011F483E01DC0B2E05B1611F0AB
:100D700084E018C0EFEFEE16F1040105110509F04B
:100D800008F4DFC064E274EF80E090E0A401930116
:100D90000E940F0D79018A010894E108F108010908
:100DA000110985E0FFEFEF16F1040105110591F13E
:100DB00088F162E17AE780E090E0A40193010E946B
:100DC0000F0D79018A010894E108F1080109110960
:100DD000552011F086E001C084E02FEFE216F10407
:100DE00001051105B9F0B0F0C601B50120E034E00D
:100DF00040E050E00E940F0D79018A010894E1085B
:100E0000F10801091109552011F087E008C085E0BB
:100E100003C081E0552019F485BD3AC082E080937B
:100E2000B10036C05101CC24DD2460E072E18AE7D4
:100E300090E0A60195010E940F0D79018A010894A6
:100E4000E108F1080109110980E0E81680E0F806E0
:100E500081E0080780E0180710F491E010C068E412
:100E600078EE81E090E0A60195010E940F0D7901D6
:100E70008A010894E108F1080109110993E0A1E051
:100E80005A1631F480918100887F982B90938100CD
:100E900089819A81AB81BC810097A105B10529F4B4
:100EA0008FEF9FEFAFEFBFEF13C0220C331CB101E8
:100EB00080E090E029813A814B815C810E94CE0CD8
:100EC00028EE33E040E050E00E94ED0CC901DA0169
:100ED000E1E05E16A1F0F2E05F1619F1552099F5F8
:100EE000E7BC8093B1019093B201A093B301B0939A
:100EF000B40180916E00826080936E0024C0F092F5
:100F00008900E09288008093B8019093B901A09382
:100F1000BA01B093BB0180916F00826080936F0033
:100F200012C0E092B3008093BF019093C001A093E0
:100F3000C101B093C2018091700082608093700003
:100F400002C084E06CCF0F900F900F900F90CF9164
:100F5000DF911F910F91FF90EF90DF90CF90BF90A6
:100F6000AF909F908F907F906F905F903F902F9069
:100F70000895CF92DF92EF92FF920F931F93CF933A
:100F8000DF937C016B018A01C0E0D0E00FC0D60185
:100F90006D916D01D701ED91FC910190F081E02DF3
:100FA000C7010995C80FD91F01501040011511053F
:100FB00071F7CE01DF91CF911F910F91FF90EF90CC
:100FC000DF90CF900895EF92FF920F931F938C01C3
:100FD000DC01ED91FC910190F081E02D6DE009952F
:100FE0007C01D801ED91FC910190F081E02DC801C8
:100FF0006AE009959C012E0D3F1DC9011F910F91BB
:10100000FF90EF900895CF93DF93EC016115710588
:1010100019F420E030E00FC0DB010D900020E9F76B
:101020001197A61BB70BE881F9810280F381E02DAF
:10103000AD0109959C01C901DF91CF9108954F92AF
:101040005F927F928F929F92AF92BF92CF92DF92E8
:10105000EF92FF920F931F93DF93CF93CDB7DEB73D
:10106000A1970FB6F894DEBF0FBECDBF2C01742E32
:10107000CB01223008F42AE019A231E2C32ED12C90
:10108000CC0EDD1E822E9924AA24BB24672D752F39
:10109000A50194010E94ED0C79018A01C801B701F4
:1010A000A50194010E94CE0C472D461B0894C1084F
:1010B000D1084A3014F4405D01C0495CF601408318
:1010C000E114F1040105110521F07E2C5F2DC8010A
:1010D000DDCFC201B6010E940308A1960FB6F894B5
:1010E000DEBF0FBECDBFCF91DF911F910F91FF905B
:1010F000EF90DF90CF90BF90AF909F908F907F90B8
:101100005F904F900895CF92DF92EF92FF920F93EE
:101110001F93CF93DF93EC016A017B012115310509
:1011200041F4E881F9810190F081E02D642F099567
:101130001FC02A303105D1F477FF17C0E881F9814B
:101140000190F081E02D6DE209958C01442755272F
:10115000BA014C195D096E097F09CE012AE00E948F
:101160001F089801280F391F04C02AE00E941F0899
:101170009C01C901DF91CF911F910F91FF90EF90DA
:10118000DF90CF900895EF92FF920F931F937B0112
:101190009A010027F7FC0095102FB801A7010E94C3
:1011A00083081F910F91FF90EF900895CF92DF92E7
:1011B000EF92FF920F931F936C017B019A0100271E
:1011C000F7FC0095102FB801A7010E9483088C013D
:1011D000C6010E94E307080F191FC8011F910F9154
:1011E000FF90EF90DF90CF9008950E94030808953C
:1011F000CF93DF930E941F040E945703C3E4D9E0FA
:101200000E94B6002097E1F30E944309F9CF0895A8
:101210001F920F920FB60F9211242F933F934F936B
:101220008F939F93EF93FF938091C00082FD1DC029
:101230004091C60020910602309107022F5F3F4F78
:101240002F73307080910802909109022817390796
:1012500071F0E0910602F0910702EA53FE4F4083DD
:10126000309307022093060202C08091C600FF91CE
:10127000EF919F918F914F913F912F910F900FBEC2
:101280000F901F901895E0915A02F0915B02E05C7C
:10129000FF4F8191919120813181821B930B8F733C
:1012A0009070892B11F00E94070908951F920F92E8
:1012B0000FB60F9211242F933F938F939F93EF9329
:1012C000FF9320914A0230914B0280914C02909101
:1012D0004D022817390731F48091C1008F7D80932A
:1012E000C10014C0E0914C02F0914D02E65FFD4F49
:1012F000208180914C0290914D0201968F739070E5
:1013000090934D0280934C022093C600FF91EF9181
:101310009F918F913F912F910F900FBE0F901F9033
:101320001895AF92BF92DF92EF92FF920F931F93A7
:10133000CF93DF93EC017A018B01DD24403081EE05
:10134000580780E0680780E0780711F0DD24D39427
:1013500091E0A92EB12CEC89FD89DD2069F0C50151
:1013600008A002C0880F991F0A94E2F7808360E00A
:1013700079E08DE390E005C0108260E874E88EE1CA
:1013800090E0A80197010E94ED0C215030404040B0
:101390005040569547953795279580E1203038077E
:1013A00020F0DD2011F0DD24D6CFE889F9893083E3
:1013B000EA89FB89208319A2EE89FF89408121E017
:1013C00030E0C9010C8C02C0880F991F0A94E2F723
:1013D000482B4083EE89FF894081C9010D8C02C0F2
:1013E000880F991F0A94E2F7482B4083EE89FF8902
:1013F0004081C9010E8C02C0880F991F0A94E2F740
:10140000482B4083EE89FF8980810F8C02C0220F18
:10141000331F0A94E2F7209528232083DF91CF9190
:101420001F910F91FF90EF90DF90BF90AF900895C4
:10143000DC011C96ED91FC911D97E05CFF4F219122
:10144000319180819181281B390B2F733070C90134
:101450000895DC011C96ED91FC911D97E05CFF4F17
:1014600020813181E054F040DF01AE5BBF4F8D91B0
:101470009C9111972817390719F42FEF3FEF07C0F8
:101480008D919C91E80FF91F8081282F30E0C901D0
:101490000895DC011C96ED91FC911D97E05CFF4FD7
:1014A00020813181E054F040DF01AE5BBF4F8D9170
:1014B0009C9111972817390719F42FEF3FEF10C0AF
:1014C0008D919C911197E80FF91F20818D919C912E
:1014D000119701968F73907011969C938E9330E0C4
:1014E000C9010895DC0191968C919197882339F078
:1014F0005496ED91FC915597808186FFF9CF919696
:101500001C920895CF93DF93EC01EE85FF85E05C9C
:10151000FF4F20813181E054F0402F5F3F4F2F7308
:101520003070DF01AE5BBF4F8D919C9111972817F2
:101530003907D1F3E05CFF4F80819181E054F040A6
:10154000E80FF91F6083EE85FF85E05CFF4F318374
:101550002083EE89FF89208181E090E00F8C02C01A
:10156000880F991F0A94E2F7282B208381E089A332
:10157000EC89FD8980818064808381E090E0DF9147
:10158000CF910895109251021092500288EE93E08C
:10159000A0E0B0E08093520290935302A0935402D3
:1015A000B09355028DE191E090934F0280934E02EB
:1015B00086EC91E090935B0280935A028AE092E07D
:1015C00090935D0280935C0285EC90E090935F02C3
:1015D00080935E0284EC90E09093610280936002BD
:1015E00080EC90E0909363028093620281EC90E043
:1015F000909365028093640282EC90E0909367027E
:101600008093660286EC90E0909369028093680272
:1016100084E080936A0283E080936B0287E080938A
:101620006C0285E080936D0281E080936E020895E4
:10163000D9D008F481E008950CD00FC107D140F053
:10164000FED030F021F45F3F19F0F0C0511139C1E4
:10165000F3C014D198F39923C9F35523B1F3951B23
:10166000550BBB27AA2762177307840738F09F5FC3
:101670005F4F220F331F441FAA1FA9F333D00E2E32
:101680003AF0E0E830D091505040E695001CCAF79F
:1016900029D0FE2F27D0660F771F881FBB1F261764
:1016A00037074807AB07B0E809F0BB0B802DBF0137
:1016B000FF2793585F4F2AF09E3F510568F0B6C050
:1016C00000C15F3FECF3983EDCF386957795679514
:1016D000B795F7959F5FC9F7880F911D96958795E8
:1016E00097F90895E1E0660F771F881FBB1F621707
:1016F00073078407BA0720F0621B730B840BBA0BC5
:10170000EE1F88F7E095089504D06894B111D9C010
:101710000895BCD088F09F5790F0B92F9927B75102
:10172000A0F0D1F0660F771F881F991F1AF0BA95A5
:10173000C9F712C0B13081F0C3D0B1E00895C0C084
:10174000672F782F8827B85F39F0B93FCCF386959B
:1017500077956795B395D9F73EF4909580957095F8
:1017600061957F4F8F4F9F4F0895E89409C097FB75
:101770003EF490958095709561957F4F8F4F9F4F68
:101780009923A9F0F92F96E9BB279395F6958795AC
:1017900077956795B795F111F8CFFAF4BB0F11F46F
:1017A00060FF1BC06F5F7F4F8F4F9F4F16C0882316
:1017B00011F096E911C0772321F09EE8872F762F4C
:1017C00005C0662371F096E8862F70E060E02AF08D
:1017D0009A95660F771F881FDAF7880F9695879579
:1017E00097F90895990F0008550FAA0BE0E8FEEF4E
:1017F00016161706E807F907C0F012161306E407D5
:10180000F50798F0621B730B840B950B39F40A26CD
:1018100061F0232B242B252B21F408950A2609F4AB
:10182000A140A6958FEF811D811D089597F99F67AF
:1018300080E870E060E008959FEF80EC0895002458
:101840000A941616170618060906089500240A9425
:1018500012161306140605060895092E0394000CAB
:1018600011F4882352F0BB0F40F4BF2B11F460FF3A
:1018700004C06F5F7F4F8F4F9F4F089557FD905863
:10188000440F551F59F05F3F71F04795880F97FB44
:10189000991F61F09F3F79F08795089512161306FE
:1018A0001406551FF2CF4695F1DF08C0161617062D
:1018B0001806991FF1CF8695710561050894089562
:1018C000E894BB2766277727CB0197F908958ADF2D
:1018D00008F48FEF08950BD0C0CFB1DF28F0B6DF4A
:1018E00018F0952309F0A2CFA7CF1124EACFC6DFC5
:1018F000A0F3959FD1F3950F50E0551F629FF00123
:10190000729FBB27F00DB11D639FAA27F00DB11D7B
:10191000AA1F649F6627B00DA11D661F829F222704
:10192000B00DA11D621F739FB00DA11D621F839F8B
:10193000A00D611D221F749F3327A00D611D231F61
:10194000849F600D211D822F762F6A2F11249F57AF
:1019500050408AF0E1F088234AF0EE0FFF1FBB1FD2
:10196000661F771F881F91505040A9F79E3F510571
:1019700070F05CCFA6CF5F3FECF3983EDCF386952A
:1019800077956795B795F795E7959F5FC1F7FE2B1C
:10199000880F911D9695879597F90895629FD001BC
:1019A000739FF001829FE00DF11D649FE00DF11D1A
:1019B000929FF00D839FF00D749FF00D659FF00DC9
:1019C0009927729FB00DE11DF91F639FB00DE11DB6
:1019D000F91FBD01CF0111240895A1E21A2EAA1BFF
:1019E000BB1BFD010DC0AA1FBB1FEE1FFF1FA217CF
:1019F000B307E407F50720F0A21BB30BE40BF50BCC
:101A0000661F771F881F991F1A9469F76095709554
:101A1000809590959B01AC01BD01CF01089597FB86
:101A2000092E05260ED057FD04D0D7DF0AD0001CA2
:101A300038F450954095309521953F4F4F4F5F4F6B
:101A40000895F6F790958095709561957F4F8F4F2B
:101A50009F4F0895EE0FFF1F0590F491E02D09941C
:041A6000F894FFCF28
:101A64003A50003A4200506C6179696E6720736F96
:101A7400756E642000200001FF00000000820AB996
:0A1A840007180A490A290A720A002D
:00000001FF
