:100000000C946E010C9496010C9496010C9496013C
:100010000C9496010C9496010C9496010C94960104
:100020000C9496010C9496010C949A0E0C94210F4A
:100030000C9496010C9496010C9496010C949601E4
:100040000C9496010C9496010C9496010C949601D4
:100050000C9496010C9496010C9496010C946A05EC
:100060000C9496010C9496010C9496010C949601B4
:100070000C9496010C9496010C9496010C949601A4
:100080000C94A6070C9496010C9496010C9496017E
:100090000C9496010C9496010C9496010C94960184
:1000A0000C9496010C9496010C94960100000000AB
:1000B000240027002A002D00300000000000250049
:1000C00028002B002E003100000000002300260035
:1000D00029002C002F000404040404030405020278
:1000E00002020403020202020606060606060404D1
:1000F00002020204040802011040804010204080E7
:10010000408008020401804020100201108010206D
:1001100040400000000200080E0000030401000B34
:100120000000070605040100080A0B0C0D0903086E
:100130000B0002020201000904000001020200009B
:1001400005240010010524010101042402060524F0
:100150000600010705810310004009040100020A9E
:10016000000000070502024000000705830240006E
:1001700000040309042203550053004200200049F3
:10018000004F00200042006F0061007200640020F8
:10019000002000200020001803530070006100724E
:1001A000006B00460075006E002000200020001249
:1001B000010002000000404F1B06920001010200F6
:1001C0000112010002020000404F1B0692000101D3
:1001D00002000100C18081C105010902A1010901DC
:1001E000A1008501050919012903150025019503C1
:1001F00075018102950175058103050109300931F9
:1002000009381581257F750895038106C0C0050151
:100210000906A1018502050719E029E71500250156
:100220007501950881029501750881039506750889
:10023000150025650507190029658100C00904021C
:1002400000010300000009210101000122650007EF
:1002500005840340000100000000000000002A2B7C
:100260002800000000000000000000000000000066
:100270000000000000002C9EB4A0A1A2A434A6A7F8
:10028000A5AE362D3738271E1F20212223242526F0
:10029000B333B62EB7B89F8485868788898A8B8CBE
:1002A0008D8E8F909192939495969798999A9B9C06
:1002B0009D2F3130A3AD350405060708090A0B0C44
:1002C0000D0E0F101112131415161718191A1B1CE6
:1002D0001DAFB1B0B500580CD60DA41011241FBE2F
:1002E000CFEFDAE0DEBFCDBF11E0A0E0B1E0EEE895
:1002F000F7E202C005900D92A634B107D9F712E0DB
:10030000A6E4B1E001C01D92AC37B107E1F712E0FD
:10031000CCEDD2E004C02297FE010E94C113C63D7D
:10032000D107C9F70E94FA0B0C94B6010C94000097
:10033000FC0188279927E89421912032E9F329309C
:1003400010F02E30C8F32B3241F02D3239F468947E
:1003500004C00E94B901820F911D219120532A30BF
:10036000C0F31EF4909581959F4F0895F8940C94D6
:10037000C5137AE0979F902D879F802D910D1124B2
:1003800008952F923F924F925F926F927F928F9239
:100390009F92AF92BF92CF92DF92EF92FF920F9314
:1003A0001F93DF93CF93CDB7DEB76A970FB6F8945C
:1003B000DEBF0FBECDBF8091E6019091E7010196AF
:1003C0009093E7018093E6018D5B9240BCF110921F
:1003D000E7011092E6010091D4011091D50182E16C
:1003E0000E946B06000F111F06581E4FF8019183E3
:1003F00080830091D4011091D50183E10E946B06A6
:10040000000F111F08561E4FF80191838083009141
:10041000D4011091D50184E10E946B06000F111FD9
:100420000A541E4FF801918380838091D4019091EA
:10043000D50101969093D5018093D4018091D40188
:100440009091D5010F970CF413C22AE731E03E8357
:100450002D8348E951E05C834B8386EB91E09A83DE
:100460008983B901DA017C01CC24DD2400E010E0AD
:1004700040E050E020E030E012C0FB01819191911A
:10048000BF01480F591F8D919D91080F191FF7014A
:10049000819191917F01C80ED91E2F5F3F4F2F3060
:1004A00031055CF3BA01882777FD8095982F0E946B
:1004B0004C1220E030E040E751E40E94B1110E946C
:1004C00019127B017093DB016093DA01B801882770
:1004D00077FD8095982F0E944C1220E030E040E795
:1004E00051E40E94B1110E9419128B017093DD0139
:1004F0006093DC01B601882777FD8095982F0E94D4
:100500004C1220E030E040E751E40E94B1110E941B
:1005100019127093DF016093DE01882499241886F4
:100520001F82442455241A861986222433241C86CB
:100530001B86662477249701442737FD4095542F66
:100540002D873E874F87588B9801442737FD40956C
:10055000542F298B3A8B4B8B5C8B9B01442737FDA7
:100560004095542F2D8B3E8B4F8B588FD6C0ED81ED
:10057000FE810190F081E02DFA8FE98FBF0188277D
:1005800077FD8095982F0E944C125B016C016D8560
:100590007E858F8598890E944C127B018C0126E60E
:1005A00036E646EA5FE30E9400139B01AC01C601F8
:1005B000B5010E94AD118823DCF4C801B70123E323
:1005C00033E343E35FE30E9400139B01AC01C601E8
:1005D000B5010E94FC1218165CF42F813885498DF4
:1005E0005A8D240F351F38872F830894811C911C46
:1005F000EB81FC810190F081E02DFA8FE98FBF0142
:10060000882777FD8095982F0E944C125B016C0122
:1006100069897A898B899C890E944C127B018C01A3
:1006200026E636E646EA5FE30E9400139B01AC0132
:10063000C601B5010E94AD118823DCF4C801B701E1
:1006400023E333E343E35FE30E9400139B01AC0128
:10065000C601B5010E94FC1218165CF429853A8582
:10066000498D5A8D240F351F3A8729870894411CDC
:10067000511CE981FA810190F081E02DFA8FE98F18
:10068000BF01882777FD8095982F0E944C125B014F
:100690006C016D897E898F89988D0E944C127B0137
:1006A0008C0126E636E646EA5FE30E9400139B01D2
:1006B000AC01C601B5010E94AD118823DCF4C8016C
:1006C000B70123E333E343E35FE30E9400139B019D
:1006D000AC01C601B5010E94FC1218165CF42B8512
:1006E0003C85498D5A8D240F351F3C872B870894F4
:1006F000211C311C0894611C711C89819A8102960D
:100700009A838983EB81FC813296FC83EB832D8174
:100710003E812E5F3F4F3E832D833FE06316710481
:100720000CF425CF8092D4019092D5014092D6014D
:100730005092D7012092D8013092D901709247018E
:10074000609246014F815885BA01882777FD8095D0
:10075000982F0E944C127B018C01B401882777FDF1
:100760008095982F0E944C129B01AC01C801B701E3
:100770000E94B1110E9419127093E1016093E0018F
:10078000E985FA85BF01882777FD8095982F0E941B
:100790004C127B018C01B201882777FD8095982F40
:1007A0000E944C129B01AC01C801B7010E94B1111B
:1007B0000E9419127093E3016093E2012B853C853E
:1007C000B901882777FD8095982F0E944C127B01F4
:1007D0008C01B101882777FD8095982F0E944C12DB
:1007E0009B01AC01C801B7010E94B1110E9419120E
:1007F0007093E5016093E40188E592E060E071E0C8
:100800000E94F70B6091E0017091E10188E592E0B0
:100810004AE050E00E94C50B88E592E063E071E099
:100820000E94F70B6091E2017091E30188E592E08C
:100830004AE050E00E94C50B88E592E066E071E076
:100840000E94F70B6091E4017091E50188E592E068
:100850004AE050E00E94C50B1092D9011092D801D5
:100860001092D7011092D6011092D5011092D401A6
:1008700088E592E00E940E0C181619060CF0DCC0F8
:1008800088E592E00E94350C9C0190934D01809385
:100890004C018634910519F08636910539F481E0D2
:1008A00090E0909351018093500113C084349105DE
:1008B00019F08436910591F482E090E09093510113
:1008C00080935001E0914E01F0914F01EA59FE4FA3
:1008D000108210924F0110924E01AEC085349105E6
:1008E00021F08536910509F089C0109251011092CE
:1008F0005001E0914E01F0914F01EE5AFE4F1082EF
:1009000010924F0110924E0182E591E00E949801F1
:100910008C01909349018093480186E691E00E9402
:10092000980190934B0180934A0117FF04C01092E5
:1009300049011092480180914801909149018958DC
:10094000934134F088E893E1909349018093480102
:1009500080914A0190914B0197FF04C010924B0186
:1009600010924A0180914A0190914B018157974121
:1009700034F080E797E190934B0180934A0188E53A
:1009800092E069E071E00E94F70B60914A0170917A
:100990004B0188E592E04AE050E00E94C50B88E5F3
:1009A00092E068E171E00E94F70B6091480170915C
:1009B000490188E592E04AE050E00E94D80B60913E
:1009C0004A0170914B01209148013091490144271F
:1009D00037FD4095542F8BE00E940B0860914A012F
:1009E00070914B012091480130914901442737FD16
:1009F0004095542F8AE00E940B081EC08091500140
:100A0000909151018130910541F480914E01909176
:100A10004F01FC01EA59FE4F09C0029769F4809129
:100A20004E0190914F01FC01EE5AFE4F208301963A
:100A300090934F0180934E016A960FB6F894DEBFF3
:100A40000FBECDBFCF91DF911F910F91FF90EF901F
:100A5000DF90CF90BF90AF909F908F907F906F90DE
:100A60005F904F903F902F90089588E592E060E866
:100A700075E20E940D0C82E160E00E94A30683E112
:100A800060E00E94A30684E160E00E94A3068BE080
:100A900061E00E94A3068AE061E00E94A30682E171
:100AA00060E00E94400783E160E00E94400784E12B
:100AB00060E00E9440078BE060E00E9440078AE00F
:100AC00060E00E94400768EE73E080E090E00E94E2
:100AD000B20508951F920F920FB60F9211242F9313
:100AE0003F938F939F93AF93BF938091EC0190912D
:100AF000ED01A091EE01B091EF013091F00101966E
:100B0000A11DB11D232F2D5F2D3720F02D570196EC
:100B1000A11DB11D2093F0018093EC019093ED0194
:100B2000A093EE01B093EF018091E8019091E9016B
:100B3000A091EA01B091EB010196A11DB11D809336
:100B4000E8019093E901A093EA01B093EB01BF9112
:100B5000AF919F918F913F912F910F900FBE0F906A
:100B60001F9018959B01AC017FB7F8948091E80124
:100B70009091E901A091EA01B091EB0166B5A89BC3
:100B800005C06F3F19F00196A11DB11D7FBFBA2F9F
:100B9000A92F982F8827860F911DA11DB11D62E0F6
:100BA000880F991FAA1FBB1F6A95D1F7BC012DC0E2
:100BB000FFB7F8948091E8019091E901A091EA01D2
:100BC000B091EB01E6B5A89B05C0EF3F19F0019687
:100BD000A11DB11DFFBFBA2FA92F982F88278E0FF7
:100BE000911DA11DB11DE2E0880F991FAA1FBB1F17
:100BF000EA95D1F7861B970B885E9340C8F2215087
:100C000030404040504068517C4F2115310541052E
:100C1000510571F60895789484B5826084BD84B5D9
:100C2000816084BD85B5826085BD85B5816085BDE7
:100C3000EEE6F0E0808181608083E1E8F0E0108200
:100C4000808182608083808181608083E0E8F0E041
:100C5000808181608083E1EBF0E08081846080832B
:100C6000E0EBF0E0808181608083E1E9F0E0808169
:100C700082608083808181608083E0E9F0E0808110
:100C800081608083E1ECF0E08081846080838081FA
:100C900082608083808181608083E3ECF0E08081EA
:100CA00081608083E0ECF0E0808182608083E2EC10
:100CB000F0E0808181608083EAE7F0E080818460F9
:100CC0008083808182608083808181608083808155
:100CD000806880830895823108F08251E82FF0E027
:100CE000EE5DFE4FE49120917B008E2F86958695D8
:100CF000869590E08170907035E0880F991F3A9545
:100D0000E1F72F7D282B20937B00E77080911A015B
:100D10008295880F880F807C8E2B80937C00809139
:100D20007A00806480937A0080917A0086FDFCCFFF
:100D30002091780040917900942F80E030E0282BBA
:100D4000392BC9010895CF93DF93482F50E0CA0192
:100D50008C509F4FFC0134914A525F4FFA018491AD
:100D6000882369F190E0880F991FFC01E455FF4F3B
:100D7000A591B491FC01E654FF4FC591D49166232F
:100D800051F42FB7F8948C91932F909589238C93DD
:100D9000888189230BC0623061F42FB7F8948C915D
:100DA000932F909589238C938881832B88832FBFE1
:100DB00006C09FB7F8948C91832B8C939FBFDF91D3
:100DC000CF9108958730C1F1883080F48330F9F0F5
:100DD000843030F4813029F1823009F050C024C0D1
:100DE0008430C9F0863009F04AC022C08A3091F1BF
:100DF0008B3030F4883031F1893009F040C026C0A2
:100E00008C3091F18C3060F18E30C9F533C0809117
:100E100080008F7703C0809180008F7D8093800059
:100E2000089584B58F7702C084B58F7D84BD089501
:100E30008091B0008F7703C08091B0008F7D809348
:100E4000B0000895809190008F7707C08091900046
:100E50008F7D03C080919000877F809390000895DC
:100E60008091C0008F7703C08091C0008F7D8093F8
:100E7000C00008958091C200877F8093C2000895CA
:100E8000FF920F931F93F62E482F50E0CA018E5EFB
:100E90009E4FFC012491CA018C509F4FFC0114917C
:100EA0004A525F4FFA0104910023C9F0222319F03E
:100EB000822F0E94E206E02FF0E0EE0FFF1FE654C3
:100EC000FF4FA591B4919FB7F894FF2021F48C9126
:100ED0001095812302C08C91812B8C939FBF1F9111
:100EE0000F91FF9008958230B9F0833028F4882361
:100EF00051F0813051F50AC0843011F18430E8F0AE
:100F0000853019F520C010926E00089580916F0011
:100F10008D7F80936F000895809170008D7F809306
:100F2000700081E08093B0008091B100887F846080
:100F30008093B1001092B30008951092710008954B
:100F40001092720008951092730008951F920F92EC
:100F50000FB60F9211242F933F934F935F936F938C
:100F60007F938F939F93AF93BF93EF93FF93809162
:100F7000060290910702A0910802B0910902009721
:100F8000A105B10551F1E0910A02F0910B028081B7
:100F900090910C028927808380910602909107022C
:100FA000A0910802B0910902181619061A061B062C
:100FB0000CF58091060290910702A0910802B09171
:100FC00009020197A109B1098093060290930702D3
:100FD000A0930802B09309020DC083E00E9473073A
:100FE000E0910A02F0910B02908180910C028095B1
:100FF00089238083FF91EF91BF91AF919F918F9152
:101000007F916F915F914F913F912F910F900FBE04
:101010000F901F9018952F923F925F926F927F9240
:101020008F929F92AF92BF92CF92DF92EF92FF92F8
:101030000F931F93DF93CF9300D000D0CDB7DEB7CF
:10104000A82F1B0129833A834B835C8380911B016A
:101050008A1721F4EEE2F1E05490DAC08F3F09F0F4
:1010600074C2A0931B01EEE2F1E054902FEF5216F0
:1010700009F46BC282E0581609F458C085153CF09B
:10108000552071F091E0591609F0C2C029C0B3E0B3
:101090005B1609F471C0E4E05E1609F0B9C092C0B5
:1010A00014BC15BC84B5826084BD85B5816085BDE6
:1010B0002A2F30E0F901EA52FF4FE491F0E0EE0F01
:1010C000FF1FE654FF4F859194919093F601809312
:1010D000F5012C503F4FF90184918093F7019AC09C
:1010E000109280001092810080918100886080932E
:1010F0008100809181008160809381002A2F30E0FF
:10110000F901EA52FF4FE491F0E0EE0FFF1FE654C1
:10111000FF4F859194919093FD018093FC012C5099
:101120003F4FF90184918093FE0174C01092B0008A
:101130001092B1008091B00082608093B0008091E5
:10114000B10081608093B1002A2F30E0F901EA52AA
:10115000FF4FE491F0E0EE0FFF1FE654FF4F859143
:10116000949190930402809303022C503F4FF90115
:101170008491809305024EC01092900010929100CD
:1011800080919100886080939100809191008160AE
:10119000809391002A2F30E0F901EA52FF4FE49149
:1011A000F0E0EE0FFF1FE654FF4F8591949190936E
:1011B0000B0280930A022C503F4FF90184918093D7
:1011C0000C0228C01092C0001092C1008091C10092
:1011D00088608093C1008091C10081608093C100CC
:1011E0002A2F30E0F901EA52FF4FE491F0E0EE0FD0
:1011F000FF1FE654FF4F85919491909312028093C4
:1012000011022C503F4FF90184918093130202C0C8
:1012100057FC9BC18A2F61E00E94A306552021F054
:10122000F2E05F1609F0BEC031018824992460E025
:1012300072E18AE790E0A40193010E94A41359018E
:101240006A01860175010894E108F1080109110994
:101250002FEFE216F1040105110509F008F499C019
:1012600060E472E48FE090E0A40193010E94A41373
:1012700079018A010894E108F1080109110982E065
:101280005816C1F49FEFE916F1040105110509F0A4
:1012900008F484C060E970ED83E090E0A40193015C
:1012A0000E94A41379018A010894E108F108010958
:1012B000110983E0AFEFEA16F1040105110509F009
:1012C00008F468C068E478EE81E090E0A40193013E
:1012D0000E94A41379018A010894E108F108010928
:1012E0001109552011F483E01DC0B2E05B1611F026
:1012F00084E018C0EFEFEE16F1040105110509F0C6
:1013000008F421C164E274EF80E090E0A40193014D
:101310000E94A41379018A010894E108F1080109E7
:10132000110985E0FFEFEF16F1040105110591F1B8
:1013300088F162E17AE780E090E0A40193010E94E5
:10134000A41379018A010894E108F108010911093F
:10135000552011F086E001C084E02FEFE216F10481
:1013600001051105B9F0B0F0C601B50120E034E087
:1013700040E050E00E94A41379018A010894E1083A
:10138000F10801091109552011F087E008C085E036
:1013900003C081E0552019F485BD4EC082E08093E2
:1013A000B1004AC05101CC24DD2460E072E18AE73B
:1013B00090E0A60195010E94A41379018A01089486
:1013C000E108F1080109110980E0E81680E0F8065B
:1013D00081E0080780E0180710F491E010C068E48D
:1013E00078EE81E090E0A60195010E94A4137901B6
:1013F0008A010894E108F1080109110993E0A1E0CC
:101400005A1639F480918100887F982B909381003F
:1014100013C0B3E05B1639F480919100887F982B5C
:101420009093910009C0E4E05E1631F48091C10010
:10143000887F982B9093C10089819A81AB81BC8170
:101440000097A105B10529F48FEF9FEFAFEFBFEF34
:1014500013C0220C331CB10180E090E029813A8155
:101460004B815C810E94631328EE33E040E050E042
:101470000E948213C901DA01E2E05E1691F1E515DE
:101480003CF0552069F0F1E05F1609F05EC017C02E
:1014900023E05216B1F1E4E05E1609F056C043C0F5
:1014A000E7BC8093F1019093F201A093F301B09314
:1014B000F40180916E00826080936E0046C0F092CD
:1014C0008900E09288008093F8019093F901A0933D
:1014D000FA01B093FB0180916F00826080936F00EE
:1014E00034C0E092B3008093FF0190930002A09378
:1014F0000102B093020280917000826080937000BC
:1015000024C0F0929900E092980080930602909394
:101510000702A0930802B0930902809171008260D3
:101520008093710012C0E092CF0080930D029093DF
:101530000E02A0930F02B09310028091720080649B
:101540008093720002C084E02ACF0F900F900F901A
:101550000F90CF91DF911F910F91FF90EF90DF904F
:10156000CF90BF90AF909F908F907F906F905F9043
:101570003F902F900895CF92DF92EF92FF920F93BA
:101580001F93CF93DF937C016B018A01C0E0D0E011
:101590000FC0D6016D916D01D701ED91FC910190C5
:1015A000F081E02DC7010995C80FD91F01501040E7
:1015B0000115110571F7CE01DF91CF911F910F91A8
:1015C000FF90EF90DF90CF900895EF92FF920F93EE
:1015D0001F938C01DC01ED91FC910190F081E02DD5
:1015E0006DE009957C01D801ED91FC910190F081AD
:1015F000E02DC8016AE009959C012E0D3F1DC9012F
:101600001F910F91FF90EF900895CF93DF93EC011E
:101610006115710519F420E030E00FC0DB010D9079
:101620000020E9F71197A61BB70BE881F98102802A
:10163000F381E02DAD0109959C01C901DF91CF91A6
:1016400008954F925F927F928F929F92AF92BF9236
:10165000CF92DF92EF92FF920F931F93DF93CF937E
:10166000CDB7DEB7A1970FB6F894DEBF0FBECDBFE2
:101670002C01742ECB01223008F42AE019A231E2A9
:10168000C32ED12CCC0EDD1E822E9924AA24BB247D
:10169000672D752FA50194010E94821379018A019B
:1016A000C801B701A50194010E946313472D461B91
:1016B0000894C108D1084A3014F4405D01C0495C67
:1016C000F6014083E114F1040105110521F07E2C9F
:1016D0005F2DC801DDCFC201B6010E94050BA196A6
:1016E0000FB6F894DEBF0FBECDBFCF91DF911F9133
:1016F0000F91FF90EF90DF90CF90BF90AF909F90B1
:101700008F907F905F904F900895CF92DF92EF92ED
:10171000FF920F931F93CF93DF93EC016A017B013C
:101720002115310541F4E881F9810190F081E02D26
:10173000642F09951FC02A303105D1F477FF17C0F7
:10174000E881F9810190F081E02D6DE209958C012D
:1017500044275527BA014C195D096E097F09CE014E
:101760002AE00E94210B9801280F391F04C02AE0AB
:101770000E94210B9C01C901DF91CF911F910F9114
:10178000FF90EF90DF90CF900895EF92FF920F932C
:101790001F937B019A010027F7FC0095102FB801D9
:1017A000A7010E94850B1F910F91FF90EF90089564
:1017B000CF92DF92EF92FF920F931F936C017B0108
:1017C0009A010027F7FC0095102FB801A7010E948D
:1017D000850B8C01C6010E94E50A080F191FC8017C
:1017E0001F910F91FF90EF90DF90CF9008950E948E
:1017F000050B0895CF93DF930E940B068EE692E0CF
:101800000E94D70D0E943505C0E0D0E00E94C101C2
:101810002097E1F30E940000F9CF0895209154022F
:10182000309155028091560290915702281B390B36
:101830002F733070C90108952091540230915502E0
:1018400080915602909157022817390719F42FEF0B
:101850003FEF09C0E0915602F0915702EC5EFD4F58
:101860008081282F30E0C9010895209154023091E1
:10187000550280915602909157022817390719F4A2
:101880002FEF3FEF13C0E0915602F0915702EC5E4C
:10189000FD4F2081809156029091570201968F73DF
:1018A0009070909357028093560230E0C9010895DA
:1018B00010925B0210925A0288EE93E0A0E0B0E032
:1018C00080935C0290935D02A0935E02B0935F02EE
:1018D0008AE291E0909359028093580208950F9301
:1018E0001F93DF93CF930F92CDB7DEB78C0169833F
:1018F00080912301882369F083E0BE016F5F7F4FF1
:1019000041E050E00E94F50D1816190614F49C01F0
:1019100007C081E090E0F8019383828320E030E00B
:10192000C9010F90CF91DF911F910F91089583E02E
:101930000E94CC0D0895CF93DF9312C082E00E94E5
:10194000570D2FEF8F3F9207C9F0E0915402F091AD
:101950005502EC5EFD4F8083D0935502C093540234
:10196000C0915402D09155022196CF73D0708091CE
:10197000560290915702C817D90701F7DF91CF910E
:101980000895FC0180818E5F808380E86FE271E0C2
:1019900042E450E00E94700D0895FC018181908125
:1019A000913A59F4813209F04CC080E06CE171E069
:1019B00047E050E00E94700D42C0913209F041C0F2
:1019C000803239F48CE191E067E070E00E94B40D60
:1019D00036C0823209F035C0828180932301809124
:1019E0001C0190911D01A0911E01B0911F01805B0F
:1019F0009440A040B04019F58091230180FD12C0B1
:101A000087E797E790930108809300082BE088E12F
:101A100090E00FB6F894A895809360000FBE2093D5
:101A200060000DC088E10FB6F894809360001092BA
:101A300060000FBEA895109201081092000881E086
:101A4000089580E00895282F809168028823C1F0CE
:101A500057FF1AC015C02898909367028091F10033
:101A60008193E217F307B9F74115510539F08091D9
:101A7000F200882319F48BE68093E800AFBF02C020
:101A80004FEF5FEFCA010895AFB7F8942770209326
:101A9000E9008091F200282F30E0241735070CF47C
:101AA000A901FB019B01240F311D94E6DACFDF93DE
:101AB000CF930F92CDB7DEB7BE016F5F7F4F41E08E
:101AC00050E00E94230D019719F02FEF3FEF03C064
:101AD0008981282F30E0C9010F90CF91DF910895BF
:101AE000FF920F931F93F82E142F052F40916B0236
:101AF00050916C02212F302FC901DC01FB016EEFE8
:101B000029C0F7FE02C0949101C090812091690222
:101B100030916A0224173507ACF48091E800857093
:101B2000E1F38091E80082FF03C02FEF3FEF17C081
:101B30009093F100C90101968F739070892B11F475
:101B40006093E8002F5F3F4F30936A022093690251
:101B5000119731961097A9F6812F902F9C01C901FA
:101B60001F910F91FF9008959C018091E80082FFE2
:101B7000FCCFF901260F311D03C08091F100819344
:101B8000E217F307D1F7289884E6809367028BEF7A
:101B90008093E800CB0108958093E9008091F200E2
:101BA000882319F08AE38093E8000895089510923D
:101BB000680281E08093D70080EA8093D80082E1B8
:101BC00089BD09B400FEFDCF61E070E080E090E0E7
:101BD0000E94B20580E98093D8008CE08093E200F7
:101BE0001092E000559A209A08955F926F927F922A
:101BF0008F929F92AF92BF92CF92DF92EF92FF921D
:101C00000F931F93CF93DF93E82E842E752E809130
:101C10006802882371F18B01242F352FC901EC0153
:101C20007AEFF72E67E0962E9E2050E4552E8E2DEB
:101C300090E040E2A42EB12CA822B9223AE3632E10
:101C400020E4C22ED12CC822D92258C09FB7F894C4
:101C50009092E9008091E80085FD02C020E004C078
:101C60008091F200252D281B9FBF222361F4FA9456
:101C700019F42FEF3FEF4DC061E070E080E090E09D
:101C80000E94B2053BC0822F90E0C817D9070CF420
:101C90002C2FC21BD1094FB7F8949092E900A114E0
:101CA000B10421F406C01092F10021502223D9F78B
:101CB00019C0E7FC03C0F801922F10C0C801322FF1
:101CC00006C0FC010196E491E093F100315033230A
:101CD000C1F706C081918093F10091509923D1F70B
:101CE000020F111D8091E80085FF05C0209729F49F
:101CF000C114D10411F06092E8004FBF209709F0A1
:101D0000A5CF5D9884E680936602282D372DC90102
:101D10009C01C901DF91CF911F910F91FF90EF902E
:101D2000DF90CF90BF90AF909F908F907F906F90FB
:101D30005F9008951F920F920FB60F9211242F9368
:101D40003F934F935F936F937F938F939F93AF9343
:101D5000BF93EF93FF938091E1001092E100982FE1
:101D600083FF0FC01092E90081E08093EB00109296
:101D7000EC0082E38093ED001092680288E080938B
:101D8000F00092FF34C083E08093E9008091F2007C
:101D9000882319F08AE38093E8008FB7F89492E0E3
:101DA0009093E9009091F2008FBF992321F088E58C
:101DB00092E00E949B0C80916602882351F08091F2
:101DC000660281508093660280916602882309F43E
:101DD0005D9A80916702882351F08091670281505B
:101DE0008093670280916702882309F4289AFF9103
:101DF000EF91BF91AF919F918F917F916F915F9183
:101E00004F913F912F910F900FBE0F901F901895FB
:101E10000F931F93DF93CF930F92CDB7DEB7198245
:101E20008E010F5F1F4FC8010E94C10CC8010E94A4
:101E3000A111898190E00F90CF91DF911F910F91B7
:101E400008951F920F920FB60F921124EF92FF92F6
:101E50001F932F933F934F935F936F937F938F9332
:101E60009F93AF93BF93EF93FF93DF93CF93CDB740
:101E7000DEB76197DEBFCDBF1092E9008091E80028
:101E800083FF0FC1FE0131969E01275F3F4F03C0C4
:101E90008091F1008193E217F307D1F7289884E647
:101EA0008093670282EF8093E800998197FF05C0D5
:101EB0008091E80080FFFCCF03C08EEF8093E800A4
:101EC000292F30E0C90180769070892B09F0C2C0BB
:101ED0008A81882329F41092F1001092F100D6C073
:101EE000813009F4D3C0833009F4D0C0853049F47F
:101EF0008091E80080FFFCCF8B8180688093E300B5
:101F0000C5C0863009F07CC01C81EF80F884123097
:101F1000C1F51092E90010926A02109269021092C3
:101F20006C0210926B020E94080F99E0FE01399634
:101F3000DF01292F1D922A95E9F799871A8791E0E9
:101F40009E8790E8988B9AEF998B20916902309147
:101F50006A02275F3F4F3C872B878D871092E900ED
:101F600010926A0210926902F0926C02E0926B0287
:101F700080E0BF0149E050E00E94700D0E94080F10
:101F800085C01092E90010926A0210926902F092E4
:101F90006C02E0926B02123241F482E290E00E9405
:101FA0009911892B09F476C071C0113079F488E059
:101FB000E816F10419F481E080936D0280916D02BE
:101FC000882309F06BC0EFEAF1E013C0133009F089
:101FD00061C08B81882319F4E1E7F1E00AC0823007
:101FE00019F4E5E7F1E005C0813009F053C0E7E9F5
:101FF000F1E0449180E8BF0150E00E94700D46C0BE
:10200000873009F447C0883021F481E08093F100E3
:102010003DC08930D9F523703070232BD9F5E4ED1C
:10202000F1E091E031E026E39093E9003093EB009A
:1020300084918093EC002093ED009F5F3196953062
:1020400099F78EE78093EA001092EA008B818093E3
:1020500068021CC08F8198851092E90010926A0274
:102060001092690290936C0280936B028D81882399
:1020700029F4CE0101960E94CD0C06C0823051F4A5
:10208000CE0101960E946A10882321F08EEF809382
:10209000E80007C081E28093EB0003C0E1ECF1E0CF
:1020A000A8CF6196DEBFCDBFCF91DF91FF91EF91B9
:1020B000BF91AF919F918F917F916F915F914F9160
:1020C0003F912F911F91FF90EF900F900FBE0F90B7
:1020D0001F901895FC0191818081813A31F49130F3
:1020E00089F080E0933089F40DC0813269F49B302F
:1020F00021F482818093240105C09A3029F48281E1
:102100008093250181E0089580E00895EF92FF9289
:102110000F931F938C01E62EDC01ED91FC9104805E
:10212000F581E02D0995F82ED801ED91FC910680FE
:10213000F781E02DC8016E2D09958F2D90E01F913C
:102140000F91FF90EF90089510926F02109273021A
:10215000109272028CE391E090937102809370026E
:102160000895EF92FF920F931F93DF93CF930F92F7
:10217000CDB7DEB789838B017A0184E0BE016F5F42
:102180007F4F41E050E00E94F50D84E4B801A701C3
:102190000E94F50D0F90CF91DF911F910F91FF904D
:1021A000EF90089582E048E050E00E94B110089559
:1021B000FC011682178210861186128613861482FD
:1021C0003496BF010E94D2100895DC01683810F0E7
:1021D000685829C0E62FF0E067FF13C0E058F040D0
:1021E00081E090E002C0880F991FEA95E2F78095A0
:1021F00014962C911497282314962C93149760E02E
:1022000012C0EA5AFD4F6491662319F420E030E0D1
:102210001DC067FF08C014968C9114978D7F14968B
:102220008C9314976F77FD0190E0662321F08681EF
:10223000861709F416829F5F31969630B1F7CD016B
:102240001496BD010E94D21021E030E0C90108952A
:10225000CF93DF93DC01683810F0685825C0E62F73
:10226000F0E067FF12C0E058F04081E090E002C06B
:10227000880F991FEA95E2F714962C911497282B52
:1022800014962C93149760E00FC0EA5AFD4F6491A6
:102290006623D9F167FF08C014968C911497826069
:1022A00014968C9314976F7716968C9116978617C1
:1022B000A9F117968C911797861781F118968C9132
:1022C0001897861759F119968C911997861731F13D
:1022D0001A968C911A97861709F11B968C911B9769
:1022E0008617E1F0ED01E0E0F0E09E2F8E8188237B
:1022F00021F4EA0FFB1F668306C09F5F319621968B
:10230000E630F10591F7963049F481E090E01396BC
:102310009C938E93129720E030E007C0CD01149675
:10232000BD010E94D21021E030E0C901DF91CF91C0
:10233000089580E868ED71E045E650E00E94700D78
:102340000895FC0180818F5F808380E86DE372E0F7
:1023500049E150E00E94700D0895D9D008F481E061
:1023600008950CD00FC107D140F0FED030F021F419
:102370005F3F19F0F0C0511139C1F3C014D198F387
:102380009923C9F35523B1F3951B550BBB27AA27F6
:1023900062177307840738F09F5F5F4F220F331F68
:1023A000441FAA1FA9F333D00E2E3AF0E0E830D034
:1023B00091505040E695001CCAF729D0FE2F27D037
:1023C000660F771F881FBB1F261737074807AB0705
:1023D000B0E809F0BB0B802DBF01FF2793585F4F7A
:1023E0002AF09E3F510568F0B6C000C15F3FECF394
:1023F000983EDCF3869577956795B795F7959F5F3F
:10240000C9F7880F911D9695879597F90895E1E092
:10241000660F771F881FBB1F621773078407BA07F1
:1024200020F0621B730B840BBA0BEE1F88F7E0954C
:10243000089504D06894B111D9C00895BCD088F033
:102440009F5790F0B92F9927B751A0F0D1F0660FA0
:10245000771F881F991F1AF0BA95C9F712C0B130BB
:1024600081F0C3D0B1E00895C0C0672F782F8827CE
:10247000B85F39F0B93FCCF3869577956795B395FA
:10248000D9F73EF490958095709561957F4F8F4F69
:102490009F4F0895E89409C097FB3EF4909580956E
:1024A000709561957F4F8F4F9F4F9923A9F0F92F1A
:1024B00096E9BB279395F695879577956795B79598
:1024C000F111F8CFFAF4BB0F11F460FF1BC06F5F7E
:1024D0007F4F8F4F9F4F16C0882311F096E911C090
:1024E000772321F09EE8872F762F05C0662371F0B1
:1024F00096E8862F70E060E02AF09A95660F771FC5
:10250000881FDAF7880F9695879597F90895990FA0
:102510000008550FAA0BE0E8FEEF16161706E807AD
:10252000F907C0F012161306E407F50798F0621BCE
:10253000730B840B950B39F40A2661F0232B242BA3
:10254000252B21F408950A2609F4A140A6958FEFC2
:10255000811D811D089597F99F6780E870E060E014
:1025600008959FEF80EC089500240A94161617062C
:1025700018060906089500240A9412161306140674
:1025800005060895092E0394000C11F4882352F0D7
:10259000BB0F40F4BF2B11F460FF04C06F5F7F4F8F
:1025A0008F4F9F4F089557FD9058440F551F59F076
:1025B0005F3F71F04795880F97FB991F61F09F3F30
:1025C00079F087950895121613061406551FF2CF59
:1025D0004695F1DF08C0161617061806991FF1CFA9
:1025E00086957105610508940895E894BB276627D0
:1025F0007727CB0197F908958ADF08F48FEF0895C4
:102600000BD0C0CFB1DF28F0B6DF18F0952309F06A
:10261000A2CFA7CF1124EACFC6DFA0F3959FD1F3B5
:10262000950F50E0551F629FF001729FBB27F00D80
:10263000B11D639FAA27F00DB11DAA1F649F6627D5
:10264000B00DA11D661F829F2227B00DA11D621F24
:10265000739FB00DA11D621F839FA00D611D221FDE
:10266000749F3327A00D611D231F849F600D211DC2
:10267000822F762F6A2F11249F5750408AF0E1F065
:1026800088234AF0EE0FFF1FBB1F661F771F881FAE
:1026900091505040A9F79E3F510570F05CCFA6CFF6
:1026A0005F3FECF3983EDCF3869577956795B79599
:1026B000F795E7959F5FC1F7FE2B880F911D9695C3
:1026C000879597F90895629FD001739FF001829FCB
:1026D000E00DF11D649FE00DF11D929FF00D839FB1
:1026E000F00D749FF00D659FF00D9927729FB00D4E
:1026F000E11DF91F639FB00DE11DF91FBD01CF0161
:1027000011240895A1E21A2EAA1BBB1BFD010DC0C6
:10271000AA1FBB1FEE1FFF1FA217B307E407F50791
:1027200020F0A21BB30BE40BF50B661F771F881F6D
:10273000991F1A9469F760957095809590959B0103
:10274000AC01BD01CF01089597FB092E05260ED0DF
:1027500057FD04D0D7DF0AD0001C38F450954095BF
:10276000309521953F4F4F4F5F4F0895F6F7909565
:102770008095709561957F4F8F4F9F4F0895EE0F15
:0E278000FF1F0590F491E02D0994F894FFCF0F
:10278E003A50003A42003A4D00506C6179696E67DA
:10279E0020736F756E642000200001FF00E10000C1
:1027AE00000000000101000000006F0CBB0A0E0CBF
:1027BE00350C1C0C970C9B0C000000008610BB0AFD
:0627CE002811E510D810EF
:00000001FF
