:100000000C946E010C9496010C9496010C9496013C
:100010000C9496010C9496010C9496010C94960104
:100020000C9496010C9496010C94A10C0C94280D40
:100030000C9496010C9496010C9496010C949601E4
:100040000C9496010C9496010C9496010C949601D4
:100050000C9496010C9496010C9496010C948704D0
:100060000C9496010C9496010C9496010C949601B4
:100070000C9496010C9496010C9496010C949601A4
:100080000C94C3060C9496010C9496010C94960162
:100090000C9496010C9496010C9496010C94960184
:1000A0000C9496010C9496010C94960100000000AB
:1000B000240027002A002D00300000000000250049
:1000C00028002B002E003100000000002300260035
:1000D00029002C002F000404040404030405020278
:1000E00002020403020202020606060606060404D1
:1000F00002020204040802011040804010204080E7
:10010000408008020401804020100201108010206D
:1001100040400000000200080E0000030401000B34
:100120000000070605040100080A0B0C0D09030472
:100130000309042203550053004200200049004FE8
:1001400000200042006F0061007200640020002067
:100150000020002000180353007000610072006B43
:1001600000460075006E00200020002000120100F3
:1001700002000000404F1B06920001010200011224
:10018000010002020000404F1B0692000101020024
:100190000100C18081C1080B0002020201000904B4
:1001A00000000102020000052400100105240101E5
:1001B000010424020605240600010705810310003E
:1001C0004009040100020A00000007050202400085
:1001D000000705830240000005010902A101090191
:1001E000A1008501050919012903150025019503C1
:1001F00075018102950175058103050109300931F9
:1002000009381581257F750895038106C0C0050151
:100210000906A1018502050719E029E71500250156
:100220007501950881029501750881039506750889
:10023000150025650507190029658100C00904021C
:1002400000010300000009210101000122650007EF
:1002500005840340000100000000000000002A2B7C
:100260002800000000000000000000000000000066
:100270000000000000002C9EB4A0A1A2A434A6A7F8
:10028000A5AE362D3738271E1F20212223242526F0
:10029000B333B62EB7B89F8485868788898A8B8CBE
:1002A0008D8E8F909192939495969798999A9B9C06
:1002B0009D2F3130A3AD350405060708090A0B0C44
:1002C0000D0E0F101112131415161718191A1B1CE6
:1002D0001DAFB1B0B500DD0BBC0EC10F11241FBEA8
:1002E000CFEFDAE0DEBFCDBF11E0A0E0B1E0E8EC97
:1002F000F5E202C005900D92A434B107D9F712E0DF
:10030000A4E4B1E001C01D92A635B107E1F712E007
:10031000CCEDD2E004C02297FE010E94DE12C63D61
:10032000D107C9F70E94170B0C94B6010C9400007A
:10033000FC0188279927E89421912032E9F329309C
:1003400010F02E30C8F32B3241F02D3239F468947E
:1003500004C00E94B901820F911D219120532A30BF
:10036000C0F31EF4909581959F4F0895F8940C94D6
:10037000E2127AE0979F902D879F802D910D112496
:1003800008952F923F924F925F926F927F928F9239
:100390009F92AF92BF92CF92DF92EF92FF920F9314
:1003A0001F93DF93CF93CDB7DEB760970FB6F89466
:1003B000DEBF0FBECDBF8091C0019091C1010196FB
:1003C0009093C1018093C0018D5B92404CF11092DB
:1003D000C1011092C0010091B4011091B50182E1F8
:1003E0000E948805000F111F08581E4FF8019183C5
:1003F00080830091B4011091B50183E10E948805CA
:10040000000F111F0A561E4FF801918380838091BF
:10041000B4019091B50101969093B5018093B40118
:100420008091B4019091B5010F970CF460C128E759
:1004300031E03C832B8346E951E05A834983D9015B
:10044000BA01EE24FF2440E050E020E030E00CC090
:100450008D919D91480F591FFB0181919191BF0191
:10046000E80EF91E2F5F3F4F2F3031058CF3BA0194
:10047000882777FD8095982F0E94691120E030E051
:1004800040E751E40E94CE100E9436118B01709318
:10049000B9016093B801B701882777FD8095982F3F
:1004A0000E94691120E030E040E751E40E94CE1044
:1004B0000E9436117093BB016093BA01188A1F869F
:1004C00022243324662477241E821D8288249924C2
:1004D0009801442737FD4095542F2F83388749874B
:1004E0005A879B01442737FD4095542F2B873C8723
:1004F0004D875E8785C0EB81FC8140805180B201D1
:10050000882777FD8095982F0E9469115B016C0107
:100510006F81788589859A850E9469117B018C019C
:1005200026E636E646EA5FE30E941D129B01AC0117
:10053000C601B5010E94CA108823C4F4C801B701DE
:1005400023E333E343E35FE30E941D129B01AC010D
:10055000C601B5010E941912181644F4240C351C6A
:100560002F8538892F5F3F4F388B2F87E981FA819C
:1005700040805180B201882777FD8095982F0E9496
:1005800069115B016C016B857C858D859E850E9460
:1005900069117B018C0126E636E646EA5FE30E949C
:1005A0001D129B01AC01C601B5010E94CA1088232F
:1005B000CCF4C801B70123E333E343E35FE30E94D4
:1005C0001D129B01AC01C601B5010E94191218163B
:1005D0004CF42D813E81240D351D3E832D830894DE
:1005E000611C711C0894811C911C49815A814E5FC9
:1005F0005F4F5A8349838B819C8102969C838B83B6
:100600009FE0891691040CF476CFEF85E093B40156
:10061000F889F093B5016092B6017092B70190929B
:10062000450180924401B101882777FD8095982F7C
:100630000E9469117B018C012F853889B9018827B7
:1006400077FD8095982F0E9469119B01AC01C8012C
:10065000B7010E94CE100E9436117093BD016093C5
:10066000BC014D815E81BA01882777FD8095982F66
:100670000E9469117B018C01B301882777FD809569
:10068000982F0E9469119B01AC01C801B7010E941B
:10069000CE100E9436117093BF016093BE018BE3B0
:1006A00092E060E071E00E94140B6091BC017091D7
:1006B000BD018BE392E04AE050E00E94E20A8BE346
:1006C00092E063E071E00E94140B6091BE017091B2
:1006D000BF018BE392E04AE050E00E94E20A1092F0
:1006E000B5011092B4011092B7011092B6018BE3DC
:1006F00092E00E94720E181619060CF0CAC08BE325
:1007000092E00E94990E9C0190934B0180934A01C4
:100710008634910519F08636910539F481E090E030
:1007200090934F0180934E0113C08434910519F0CA
:100730008436910591F482E090E090934F0180938C
:100740004E01E0914C01F0914D01EC59FE4F1082A9
:1007500010924D0110924C019CC08534910521F0FE
:100760008536910509F077C010924F0110924E0125
:10077000E0914C01F0914D01E05BFE4F1082109230
:100780004D0110924C0180E591E00E9498018C018E
:10079000909347018093460184E691E00E9498017E
:1007A0009C01909349018093480117FF04C0109267
:1007B0004701109246018091460190914701895866
:1007C000934134F088E893E1909347018093460188
:1007D00037FF04C0109249011092480180914801EE
:1007E000909149018157974134F080E797E19093C8
:1007F0004901809348018BE392E066E071E00E943A
:10080000140B60914801709149018BE392E04AE03A
:1008100050E00E94E20A8BE392E065E171E00E9401
:10082000140B60914601709147018BE392E04AE01E
:1008300050E00E94F50A60914801709149012091B1
:10084000460130914701442737FD4095542F8BE0F6
:100850000E9428071EC080914E0190914F01813067
:10086000910541F480914C0190914D01FC01EC59AE
:10087000FE4F09C0029769F480914C0190914D019F
:10088000FC01E05BFE4F2083019690934D01809325
:100890004C0160960FB6F894DEBF0FBECDBFCF916E
:1008A000DF911F910F91FF90EF90DF90CF90BF905D
:1008B000AF909F908F907F906F905F904F903F9000
:1008C0002F9008958BE392E060E875E20E94710E2C
:1008D00082E160E00E94C00583E160E00E94C00503
:1008E0008BE061E00E94C00582E160E00E945D064D
:1008F00083E160E00E945D068BE060E00E945D069F
:1009000068EE73E080E090E00E94CF0408951F92AB
:100910000F920FB60F9211242F933F938F939F93B3
:10092000AF93BF938091C6019091C701A091C80178
:10093000B091C9013091CA010196A11DB11D232FAB
:100940002D5F2D3720F02D570196A11DB11D20934D
:10095000CA018093C6019093C701A093C801B093C8
:10096000C9018091C2019091C301A091C401B091CD
:10097000C5010196A11DB11D8093C2019093C301D1
:10098000A093C401B093C501BF91AF919F918F9186
:100990003F912F910F900FBE0F901F9018959B01C4
:1009A000AC017FB7F8948091C2019091C301A091EE
:1009B000C401B091C50166B5A89B05C06F3F19F091
:1009C0000196A11DB11D7FBFBA2FA92F982F88278F
:1009D000860F911DA11DB11D62E0880F991FAA1FEE
:1009E000BB1F6A95D1F7BC012DC0FFB7F894809169
:1009F000C2019091C301A091C401B091C501E6B5B7
:100A0000A89B05C0EF3F19F00196A11DB11DFFBFC6
:100A1000BA2FA92F982F88278E0F911DA11DB11DC8
:100A2000E2E0880F991FAA1FBB1FEA95D1F7861B2A
:100A3000970B885E9340C8F22150304040405040B0
:100A400068517C4F211531054105510571F6089516
:100A5000789484B5826084BD84B5816084BD85B599
:100A6000826085BD85B5816085BDEEE6F0E0808160
:100A700081608083E1E8F0E0108280818260808381
:100A8000808181608083E0E8F0E080818160808304
:100A9000E1EBF0E0808184608083E0EBF0E0808136
:100AA00081608083E1E9F0E08081826080838081E1
:100AB00081608083E0E9F0E0808181608083E1EC07
:100AC000F0E0808184608083808182608083808187
:100AD00081608083E3ECF0E0808181608083E0ECE2
:100AE000F0E0808182608083E2ECF0E080818160D0
:100AF0008083EAE7F0E08081846080838081826087
:100B00008083808181608083808180688083089574
:100B1000823108F08251E82FF0E0EE5DFE4FE49163
:100B200020917B008E2F86958695869590E081702A
:100B3000907035E0880F991F3A95E1F72F7D282BAB
:100B400020937B00E770809117018295880F880FB2
:100B5000807C8E2B80937C0080917A0080648093CF
:100B60007A0080917A0086FDFCCF20917800409138
:100B70007900942F80E030E0282B392BC9010895AB
:100B8000CF93DF93482F50E0CA018C509F4FFC0158
:100B900034914A525F4FFA018491882369F190E0C1
:100BA000880F991FFC01E455FF4FA591B491FC01FA
:100BB000E654FF4FC591D491662351F42FB7F894B2
:100BC0008C91932F909589238C93888189230BC0D6
:100BD000623061F42FB7F8948C91932F909589230C
:100BE0008C938881832B88832FBF06C09FB7F8948E
:100BF0008C91832B8C939FBFDF91CF910895873089
:100C0000C1F1883080F48330F9F0843030F48130E1
:100C100029F1823009F050C024C08430C9F08630F8
:100C200009F04AC022C08A3091F18B3030F488300C
:100C300031F1893009F040C026C08C3091F18C3000
:100C400060F18E30C9F533C0809180008F7703C08A
:100C5000809180008F7D80938000089584B58F7788
:100C600002C084B58F7D84BD08958091B0008F77D8
:100C700003C08091B0008F7D8093B0000895809173
:100C800090008F7707C0809190008F7D03C0809186
:100C90009000877F8093900008958091C0008F77A7
:100CA00003C08091C0008F7D8093C0000895809123
:100CB000C200877F8093C2000895FF920F931F9315
:100CC000F62E482F50E0CA018E5E9E4FFC01249103
:100CD000CA018C509F4FFC0114914A525F4FFA0198
:100CE00004910023C9F0222319F0822F0E94FF05EE
:100CF000E02FF0E0EE0FFF1FE654FF4FA591B491F7
:100D00009FB7F894FF2021F48C911095812302C0A5
:100D10008C91812B8C939FBF1F910F91FF90089511
:100D20008230B9F0833028F4882351F0813051F5B6
:100D30000AC0843011F18430E8F0853019F520C004
:100D400010926E00089580916F008D7F80936F00E8
:100D50000895809170008D7F8093700081E0809372
:100D6000B0008091B100887F84608093B1001092C0
:100D7000B3000895109271000895109272000895C2
:100D80001092730008951F920F920FB60F921124C4
:100D90002F933F934F935F936F937F938F939F9383
:100DA000AF93BF93EF93FF938091E0019091E101A6
:100DB000A091E201B091E3010097A105B10551F1C5
:100DC000E091E401F091E50180819091E6018927AD
:100DD00080838091E0019091E101A091E201B091C6
:100DE000E301181619061A061B060CF58091E0019E
:100DF0009091E101A091E201B091E3010197A10975
:100E0000B1098093E0019093E101A093E201B093D6
:100E1000E3010DC083E00E949006E091E401F091AF
:100E2000E50190818091E601809589238083FF917F
:100E3000EF91BF91AF919F918F917F916F915F9152
:100E40004F913F912F910F900FBE0F901F901895CB
:100E50002F923F925F926F927F928F929F92AF926A
:100E6000BF92CF92DF92EF92FF920F931F93DF9387
:100E7000CF9300D000D0CDB7DEB7A82F1B012983B8
:100E80003A834B835C83809118018A1721F4EEE248
:100E9000F1E05490DAC08F3F09F074C2A0931801BA
:100EA000EEE2F1E054902FEF521609F46BC282E0AB
:100EB000581609F458C085153CF0552071F091E0A2
:100EC000591609F0C2C029C0B3E05B1609F471C01D
:100ED000E4E05E1609F0B9C092C014BC15BC84B53C
:100EE000826084BD85B5816085BD2A2F30E0F9011F
:100EF000EA52FF4FE491F0E0EE0FFF1FE654FF4F80
:100F0000859194919093D0018093CF012C503F4FC5
:100F1000F90184918093D1019AC0109280001092BF
:100F200081008091810088608093810080918100A0
:100F30008160809381002A2F30E0F901EA52FF4F4F
:100F4000E491F0E0EE0FFF1FE654FF4F859194917E
:100F50009093D7018093D6012C503F4FF901849193
:100F60008093D80174C01092B0001092B1008091AB
:100F7000B00082608093B0008091B1008160809366
:100F8000B1002A2F30E0F901EA52FF4FE491F0E07E
:100F9000EE0FFF1FE654FF4F859194919093DE0171
:100FA0008093DD012C503F4FF90184918093DF0144
:100FB0004EC0109290001092910080919100886034
:100FC00080939100809191008160809391002A2FFD
:100FD00030E0F901EA52FF4FE491F0E0EE0FFF1F1D
:100FE000E654FF4F859194919093E5018093E4013D
:100FF0002C503F4FF90184918093E60128C0109254
:10100000C0001092C1008091C10088608093C1002F
:101010008091C10081608093C1002A2F30E0F901E6
:10102000EA52FF4FE491F0E0EE0FFF1FE654FF4F4E
:10103000859194919093EC018093EB012C503F4F5C
:10104000F90184918093ED0102C057FC9BC18A2F66
:1010500061E00E94C005552021F0F2E05F1609F022
:10106000BEC031018824992460E072E18AE790E0F3
:10107000A40193010E94C11259016A018601750100
:101080000894E108F108010911092FEFE216F104B3
:101090000105110509F008F499C060E472E48FE0DD
:1010A00090E0A40193010E94C11279018A01089481
:1010B000E108F1080109110982E05816C1F49FEF17
:1010C000E916F1040105110509F008F484C060E98E
:1010D00070ED83E090E0A40193010E94C1127901B8
:1010E0008A010894E108F1080109110983E0AFEFD2
:1010F000EA16F1040105110509F008F468C068E476
:1011000078EE81E090E0A40193010E94C112790180
:101110008A010894E108F10801091109552011F428
:1011200083E01DC0B2E05B1611F084E018C0EFEF61
:10113000EE16F1040105110509F008F421C164E27D
:1011400074EF80E090E0A40193010E94C112790144
:101150008A010894E108F1080109110985E0FFEF0F
:10116000EF16F1040105110591F188F162E17AE7CA
:1011700080E090E0A40193010E94C11279018A01EC
:101180000894E108F10801091109552011F086E0E1
:1011900001C084E02FEFE216F10401051105B9F05A
:1011A000B0F0C601B50120E034E040E050E00E941C
:1011B000C11279018A010894E108F10801091109B5
:1011C000552011F087E008C085E003C081E055207C
:1011D00019F485BD4EC082E08093B1004AC0510130
:1011E000CC24DD2460E072E18AE790E0A60195015D
:1011F0000E94C11279018A010894E108F1080109ED
:10120000110980E0E81680E0F80681E0080780E038
:10121000180710F491E010C068E478EE81E090E0E7
:10122000A60195010E94C11279018A010894E10882
:10123000F1080109110993E0A1E05A1639F48091EF
:101240008100887F982B9093810013C0B3E05B16D8
:1012500039F480919100887F982B9093910009C078
:10126000E4E05E1631F48091C100887F982B909362
:10127000C10089819A81AB81BC810097A105B1052C
:1012800029F48FEF9FEFAFEFBFEF13C0220C331C99
:10129000B10180E090E029813A814B815C810E941C
:1012A000801228EE33E040E050E00E949F12C90116
:1012B000DA01E2E05E1691F1E5153CF0552069F0A7
:1012C000F1E05F1609F05EC017C023E05216B1F1DD
:1012D000E4E05E1609F056C043C0E7BC8093CB0142
:1012E0009093CC01A093CD01B093CE0180916E007C
:1012F000826080936E0046C0F0928900E092880080
:101300008093D2019093D301A093D401B093D501DF
:1013100080916F00826080936F0034C0E092B300D0
:101320008093D9019093DA01A093DB01B093DC01A3
:101330008091700082608093700024C0F0929900C8
:10134000E09298008093E0019093E101A093E20184
:10135000B093E3018091710082608093710012C0AC
:10136000E092CF008093E7019093E801A093E90118
:10137000B093EA018091720080648093720002C091
:1013800084E02ACF0F900F900F900F90CF91DF91B4
:101390001F910F91FF90EF90DF90CF90BF90AF9093
:1013A0009F908F907F906F905F903F902F900895C7
:1013B000CF92DF92EF92FF920F931F93CF93DF9321
:1013C0007C016B018A01C0E0D0E00FC0D6016D91B5
:1013D0006D01D701ED91FC910190F081E02DC701E5
:1013E0000995C80FD91F015010400115110571F75B
:1013F000CE01DF91CF911F910F91FF90EF90DF9081
:10140000CF900895EF92FF920F931F938C01DC0110
:10141000ED91FC910190F081E02D6DE009957C014A
:10142000D801ED91FC910190F081E02DC8016AE0B6
:1014300009959C012E0D3F1DC9011F910F91FF9031
:10144000EF900895CF93DF93EC016115710519F4C6
:1014500020E030E00FC0DB010D900020E9F711978C
:10146000A61BB70BE881F9810280F381E02DAD0165
:1014700009959C01C901DF91CF9108954F925F9228
:101480007F928F929F92AF92BF92CF92DF92EF9214
:10149000FF920F931F93DF93CF93CDB7DEB7A19742
:1014A0000FB6F894DEBF0FBECDBF2C01742ECB015A
:1014B000223008F42AE019A231E2C32ED12CCC0E3E
:1014C000DD1E822E9924AA24BB24672D752FA50129
:1014D00094010E949F1279018A01C801B701A501F8
:1014E00094010E948012472D461B0894C108D10820
:1014F0004A3014F4405D01C0495CF6014083E114B8
:10150000F1040105110521F07E2C5F2DC801DDCF0E
:10151000C201B6010E94220AA1960FB6F894DEBF5E
:101520000FBECDBFCF91DF911F910F91FF90EF9034
:10153000DF90CF90BF90AF909F908F907F905F9003
:101540004F900895CF92DF92EF92FF920F931F93E7
:10155000CF93DF93EC016A017B012115310541F442
:10156000E881F9810190F081E02D642F09951FC079
:101570002A303105D1F477FF17C0E881F981019055
:10158000F081E02D6DE209958C0144275527BA01C1
:101590004C195D096E097F09CE012AE00E943E0ABE
:1015A0009801280F391F04C02AE00E943E0A9C01BE
:1015B000C901DF91CF911F910F91FF90EF90DF90C4
:1015C000CF900895EF92FF920F931F937B019A01A2
:1015D0000027F7FC0095102FB801A7010E94A20A6E
:1015E0001F910F91FF90EF900895CF92DF92EF92AD
:1015F000FF920F931F936C017B019A010027F7FC68
:101600000095102FB801A7010E94A20A8C01C60103
:101610000E94020A080F191FC8011F910F91FF9025
:10162000EF90DF90CF9008950E94220A0895CF9303
:10163000DF930E94280586EF91E00E94DE0B0E9456
:101640006204C0E0D0E00E94C1012097E1F30E9453
:101650000000F9CF282F8091F0018823C1F057FFB7
:101660001AC015C028989093EF018091F1008193E2
:10167000E217F307B9F74115510539F08091F200EF
:10168000882319F48BE68093E800AFBF02C04FEFC8
:101690005FEFCA010895AFB7F89427702093E9006F
:1016A0008091F200282F30E0241735070CF4A901AF
:1016B000FB019B01240F311D94E6DACFDF93CF931A
:1016C0000F92CDB7DEB7BE016F5F7F4F41E050E0B4
:1016D0000E942A0B019719F02FEF3FEF03C0898179
:1016E000282F30E0C9010F90CF91DF910895FF922C
:1016F0000F931F93F82E142F052F4091F301509153
:10170000F401212F302FC901DC01FB016EEF29C04C
:10171000F7FE02C0949101C090812091F1013091B7
:10172000F20124173507ACF48091E8008570E1F3ED
:101730008091E80082FF03C02FEF3FEF17C0909326
:10174000F100C90101968F739070892B11F4609399
:10175000E8002F5F3F4F3093F2012093F101119782
:1017600031961097A9F6812F902F9C01C9011F91E6
:101770000F91FF9008959C018091E80082FFFCCFBB
:10178000F901260F311D03C08091F1008193E2170A
:10179000F307D1F7289884E68093EF018BEF8093CD
:1017A000E800CB0108958093E9008091F20088233E
:1017B00019F08AE38093E800089508951092F001EB
:1017C00081E08093D70080EA8093D80082E189BDD0
:1017D00009B400FEFDCF61E070E080E090E00E947F
:1017E000CF0480E98093D8008CE08093E2001092CF
:1017F000E000559A209A08955F926F927F928F929F
:101800009F92AF92BF92CF92DF92EF92FF920F938F
:101810001F93CF93DF93E82E842E752E8091F001D5
:10182000882371F18B01242F352FC901EC017AEF48
:10183000F72E67E0962E9E2050E4552E8E2D90E0D8
:1018400040E2A42EB12CA822B9223AE3632E20E470
:10185000C22ED12CC822D92258C09FB7F89490929A
:10186000E9008091E80085FD02C020E004C080917D
:10187000F200252D281B9FBF222361F4FA9419F44E
:101880002FEF3FEF4DC061E070E080E090E00E94FC
:10189000CF043BC0822F90E0C817D9070CF42C2F3F
:1018A000C21BD1094FB7F8949092E900A114B1047A
:1018B00021F406C01092F10021502223D9F719C05B
:1018C000E7FC03C0F801922F10C0C801322F06C0F8
:1018D000FC010196E491E093F10031503323C1F70C
:1018E00006C081918093F10091509923D1F7020FA6
:1018F000111D8091E80085FF05C0209729F4C114CF
:10190000D10411F06092E8004FBF209709F0A5CFF5
:101910005D9884E68093EE01282D372DC9019C0146
:10192000C901DF91CF911F910F91FF90EF90DF9050
:10193000CF90BF90AF909F908F907F906F905F906F
:1019400008951F920F920FB60F9211242F933F9379
:101950004F935F936F937F938F939F93AF93BF93B7
:10196000EF93FF938091E1001092E100982F83FFA5
:101970000FC01092E90081E08093EB001092EC0020
:1019800082E38093ED001092F00188E08093F000F4
:1019900092FF34C083E08093E9008091F2008823B5
:1019A00019F08AE38093E8008FB7F89492E090935F
:1019B000E9009091F2008FBF992321F08BE392E030
:1019C0000E94FF0E8091EE01882351F08091EE017C
:1019D00081508093EE018091EE01882309F45D9A95
:1019E0008091EF01882351F08091EF018150809325
:1019F000EF018091EF01882309F4289AFF91EF917C
:101A0000BF91AF919F918F917F916F915F914F9116
:101A10003F912F910F900FBE0F901F9018950F932D
:101A20001F93DF93CF930F92CDB7DEB719828E014C
:101A30000F5F1F4FC8010E94250FC8010E94BE10F2
:101A4000898190E00F90CF91DF911F910F910895C0
:101A50001F920F920FB60F921124EF92FF921F93D5
:101A60002F933F934F935F936F937F938F939F93A6
:101A7000AF93BF93EF93FF93DF93CF93CDB7DEB7D1
:101A80006197DEBFCDBF1092E9008091E80083FF2F
:101A90000FC1FE0131969E01275F3F4F03C0809129
:101AA000F1008193E217F307D1F7289884E6809339
:101AB000EF0182EF8093E800998197FF05C0809144
:101AC000E80080FFFCCF03C08EEF8093E800292F51
:101AD00030E0C90180769070892B09F0C2C08A81FC
:101AE000882329F41092F1001092F100D6C08130C1
:101AF00009F4D3C0833009F4D0C0853049F4809113
:101B0000E80080FFFCCF8B8180688093E300C5C034
:101B1000863009F07CC01C81EF80F8841230C1F55A
:101B20001092E9001092F2011092F1011092F4016A
:101B30001092F3010E940F0D99E0FE013996DF012A
:101B4000292F1D922A95E9F799871A8791E09E8798
:101B500090E8988B9AEF998B2091F1013091F201E6
:101B6000275F3F4F3C872B878D871092E9001092AB
:101B7000F2011092F101F092F401E092F30180E0A1
:101B8000BF0149E050E00E94770B0E940F0D85C015
:101B90001092E9001092F2011092F101F092F4011A
:101BA000E092F301123241F482E290E00E94B6101A
:101BB000892B09F476C071C0113079F488E0E816F9
:101BC000F10419F481E08093F5018091F5018823F7
:101BD00009F06BC0EDE6F1E013C0133009F061C00D
:101BE0008B81882319F4EFE2F1E00AC0823019F406
:101BF000E3E3F1E005C0813009F053C0E5E5F1E031
:101C0000449180E8BF0150E00E94770B46C08730C6
:101C100009F447C0883021F481E08093F1003DC091
:101C20008930D9F523703070232BD9F5E2E9F1E042
:101C300091E031E026E39093E9003093EB0084914A
:101C40008093EC002093ED009F5F3196953099F7DB
:101C50008EE78093EA001092EA008B818093F00176
:101C60001CC08F8198851092E9001092F2011092A9
:101C7000F1019093F4018093F3018D81882329F47D
:101C8000CE0101960E94310F06C0823051F4CE0180
:101C900001960E94870F882321F08EEF8093E80041
:101CA00007C081E28093EB0003C0EFE7F1E0A8CF2B
:101CB0006196DEBFCDBFCF91DF91FF91EF91BF91D4
:101CC000AF919F918F917F916F915F914F913F91D4
:101CD0002F911F91FF90EF900F900FBE0F901F90CC
:101CE0001895089520913702309138028091390279
:101CF00090913A02281B390B2F733070C901089557
:101D000020913702309138028091390290913A0245
:101D10002817390719F42FEF3FEF09C0E091390276
:101D2000F0913A02E950FE4F8081282F30E0C9013E
:101D300008952091370230913802809139029091B4
:101D40003A022817390719F42FEF3FEF13C0E0913B
:101D50003902F0913A02E950FE4F20818091390218
:101D600090913A0201968F73907090933A0280930B
:101D7000390230E0C901089510923E0210923D02EE
:101D800088EE93E0A0E0B0E080933F0290934002A1
:101D9000A0934102B093420287E291E090933C020B
:101DA00080933B0208950F931F93DF93CF930F927D
:101DB000CDB7DEB78C01698380912001882369F05B
:101DC00083E0BE016F5F7F4F41E050E00E94FC0B5B
:101DD0001816190614F49C0107C081E090E0F80180
:101DE0009383828320E030E0C9010F90CF91DF918F
:101DF0001F910F91089583E00E94D30B0895CF9314
:101E0000DF9312C082E00E945E0B2FEF8F3F92079C
:101E1000C9F0E0913702F0913802E950FE4F80831B
:101E2000D0933802C0933702C0913702D091380264
:101E30002196CF73D0708091390290913A02C817E1
:101E4000D90701F7DF91CF910895FC0180818E5F62
:101E5000808380E866E971E042E450E00E94770BFD
:101E60000895FC0181819081913A59F4813209F001
:101E70004CC080E069E171E047E050E00E94770BE0
:101E800042C0913209F041C0803239F489E191E0D9
:101E900067E070E00E94BB0B36C0823209F035C0AB
:101EA0008281809320018091190190911A01A09163
:101EB0001B01B0911C01805B9440A040B04019F51B
:101EC0008091200180FD12C087E797E79093010879
:101ED000809300082BE088E190E00FB6F894A89575
:101EE000809360000FBE209360000DC088E10FB6A4
:101EF000F89480936000109260000FBEA895109235
:101F000001081092000881E0089580E00895FC0126
:101F100091818081813A31F4913089F080E0933071
:101F200089F40DC0813269F49B3021F48281809361
:101F3000210105C09A3029F482818093220181E039
:101F4000089580E00895EF92FF920F931F938C0104
:101F5000E62EDC01ED91FC910480F581E02D0995E0
:101F6000F82ED801ED91FC910680F781E02DC80193
:101F70006E2D09958F2D90E01F910F91FF90EF909E
:101F800008951092490210924D0210924C0289E37A
:101F900091E090934B0280934A020895EF92FF9252
:101FA0000F931F93DF93CF930F92CDB7DEB7898343
:101FB0008B017A0184E0BE016F5F7F4F41E050E00A
:101FC0000E94FC0B84E4B801A7010E94FC0B0F9057
:101FD000CF91DF911F910F91FF90EF90089582E0D4
:101FE00048E050E00E94CE0F0895FC01168217824F
:101FF000108611861286138614823496BF010E94C1
:10200000EF0F0895DC01683810F0685829C0E62FFA
:10201000F0E067FF13C0E058F04081E090E002C0BC
:10202000880F991FEA95E2F7809514962C911497E2
:10203000282314962C93149760E012C0EA5AFD4F9F
:102040006491662319F420E030E01DC067FF08C0EA
:1020500014968C9114978D7F14968C9314976F77A8
:10206000FD0190E0662321F08681861709F416822F
:102070009F5F31969630B1F7CD011496BD010E9455
:10208000EF0F21E030E0C9010895CF93DF93DC0129
:10209000683810F0685825C0E62FF0E067FF12C0DE
:1020A000E058F04081E090E002C0880F991FEA9567
:1020B000E2F714962C911497282B14962C931497CE
:1020C00060E00FC0EA5AFD4F64916623D9F167FFC3
:1020D00008C014968C911497826014968C93149770
:1020E0006F7716968C9116978617A9F117968C9193
:1020F0001797861781F118968C911897861759F1C2
:1021000019968C911997861731F11A968C911A9716
:10211000861709F11B968C911B978617E1F0ED014C
:10212000E0E0F0E09E2F8E81882321F4EA0FFB1F70
:10213000668306C09F5F31962196E630F10591F7E0
:10214000963049F481E090E013969C938E93129719
:1021500020E030E007C0CD011496BD010E94EF0FD2
:1021600021E030E0C901DF91CF91089580E868ED6A
:1021700071E045E650E00E94770B0895FC018081F4
:102180008F5F808380E86DE372E049E150E00E9458
:10219000770B0895D9D008F481E008950CD00FC1D1
:1021A00007D140F0FED030F021F45F3F19F0F0C0CD
:1021B000511139C1F3C014D198F39923C9F35523B0
:1021C000B1F3951B550BBB27AA276217730784072A
:1021D00038F09F5F5F4F220F331F441FAA1FA9F3E0
:1021E00033D00E2E3AF0E0E830D091505040E695D2
:1021F000001CCAF729D0FE2F27D0660F771F881F33
:10220000BB1F261737074807AB07B0E809F0BB0B21
:10221000802DBF01FF2793585F4F2AF09E3F510545
:1022200068F0B6C000C15F3FECF3983EDCF38695E2
:1022300077956795B795F7959F5FC9F7880F911DBB
:102240009695879597F90895E1E0660F771F881FA7
:10225000BB1F621773078407BA0720F0621B730B5A
:10226000840BBA0BEE1F88F7E095089504D06894AC
:10227000B111D9C00895BCD088F09F5790F0B92F04
:102280009927B751A0F0D1F0660F771F881F991FCB
:102290001AF0BA95C9F712C0B13081F0C3D0B1E0DD
:1022A0000895C0C0672F782F8827B85F39F0B93FED
:1022B000CCF3869577956795B395D9F73EF49095CD
:1022C0008095709561957F4F8F4F9F4F0895E8944B
:1022D00009C097FB3EF490958095709561957F4F6E
:1022E0008F4F9F4F9923A9F0F92F96E9BB2793951C
:1022F000F695879577956795B795F111F8CFFAF42C
:10230000BB0F11F460FF1BC06F5F7F4F8F4F9F4F5C
:1023100016C0882311F096E911C0772321F09EE8BA
:10232000872F762F05C0662371F096E8862F70E020
:1023300060E02AF09A95660F771F881FDAF7880FFA
:102340009695879597F90895990F0008550FAA0B50
:10235000E0E8FEEF16161706E807F907C0F01216B8
:102360001306E407F50798F0621B730B840B950BBB
:1023700039F40A2661F0232B242B252B21F4089510
:102380000A2609F4A140A6958FEF811D811D0895AD
:1023900097F99F6780E870E060E008959FEF80EC18
:1023A000089500240A9416161706180609060895BB
:1023B00000240A9412161306140605060895092E21
:1023C0000394000C11F4882352F0BB0F40F4BF2B90
:1023D00011F460FF04C06F5F7F4F8F4F9F4F0895D0
:1023E00057FD9058440F551F59F05F3F71F04795C6
:1023F000880F97FB991F61F09F3F79F087950895AB
:10240000121613061406551FF2CF4695F1DF08C0C9
:10241000161617061806991FF1CF869571056105E6
:1024200008940895E894BB2766277727CB0197F98E
:1024300008958ADF08F48FEF08950BD0C0CFB1DF85
:1024400028F0B6DF18F0952309F0A2CFA7CF11240A
:10245000EACFC6DFA0F3959FD1F3950F50E0551F4B
:10246000629FF001729FBB27F00DB11D639FAA27E9
:10247000F00DB11DAA1F649F6627B00DA11D661F38
:10248000829F2227B00DA11D621F739FB00DA11D59
:10249000621F839FA00D611D221F749F3327A00D13
:1024A000611D231F849F600D211D822F762F6A2FAF
:1024B00011249F5750408AF0E1F088234AF0EE0F34
:1024C000FF1FBB1F661F771F881F91505040A9F741
:1024D0009E3F510570F05CCFA6CF5F3FECF3983E76
:1024E000DCF3869577956795B795F795E7959F5FA8
:1024F000C1F7FE2B880F911D9695879597F9089542
:10250000629FD001739FF001829FE00DF11D649FD7
:10251000E00DF11D929FF00D839FF00D749FF00D63
:10252000659FF00D9927729FB00DE11DF91F639F04
:10253000B00DE11DF91FBD01CF0111240895A1E2E5
:102540001A2EAA1BBB1BFD010DC0AA1FBB1FEE1F2D
:10255000FF1FA217B307E407F50720F0A21BB30B78
:10256000E40BF50B661F771F881F991F1A9469F7F4
:1025700060957095809590959B01AC01BD01CF0150
:10258000089597FB092E05260ED057FD04D0D7DFFE
:102590000AD0001C38F450954095309521953F4F56
:1025A0004F4F5F4F0895F6F7909580957095619520
:1025B0007F4F8F4F9F4F0895EE0FFF1F0590F491AF
:0825C000E02D0994F894FFCF0F
:1025C8003A50003A4200506C6179696E6720736F27
:1025D800756E642000200001FF00E100000000008B
:1025E80000010100000000D30ED809720E990E8078
:1025F8000EFB0EFF0E00000000A30FD809451002C5
:0426080010F50F00BA
:00000001FF
