:1000000000180020C10000007D1C0000411C000001
:10001000411C0000411C0000411C0000411C00006C
:10002000411C0000411C0000411C00007D1C000020
:100030007D1C0000411C00007D1C0000311C0000E4
:100040007D1C00007D1C00007D1C00007D1C00004C
:100050007D1C00007D1C00007D1C00007D1C00003C
:100060007D1C00007D1C00007D1C00007D1C00002C
:1000700049230000D5270000952D00007D1C0000BD
:100080007D1C00007D1C00007D1C00007D1C00000C
:100090007D1C00007D1C0000C93300007D1C000099
:1000A0004D0F00007D1C00007D1C00007D1C000029
:1000B0007D1C00007D1C00007D1C00007D1C0000DC
:1000C000F8B501F0DFFD0821474A484B1A60484A5D
:1000D000484B1A60484A494B1A60494B1A780A4201
:1000E00002D01A780A431A702A22464B46481A70E0
:1000F00000234649464C1A188A4203D2E558043375
:100100001560F8E70021434B434A934201D202C3F2
:10011000FBE70023414A424958589446985004331B
:10012000C02BF9D100210326FF2580248A083D4BEE
:100130009200D2180B002F003340DB009F40106864
:100140000131B84307002000984003003B4313608F
:100150002029EBD16246344B1A608A22334B1A7045
:10016000334B663A5A707C321A709E3A9979114232
:10017000FCD0102299791142FCD10C209A792C499B
:100180000240082AFAD1053A0A713D324A71203AF2
:1001900099791142FCD0402299791142FCD025492D
:1001A000254A11602021224A117014399A790A4097
:1001B0000C2AFBD1214A224B1A60224A224B1A6098
:1001C0000022224B1A60224B07321A60214A224B2E
:1001D0001A6062B600F08EFD03F048FF01F058FD92
:1001E00001F0CCFCFEE7C046300004F0348004404F
:1001F000823F0000388004400100000F3C80044032
:1002000002D0074000E0074020FDFF1FA8FFFF1FAE
:10021000D8470000A8FFFF1FE403002000F9FF1FDC
:100220000000000000E400E008ED00E0005006409F
:10023000004006400000011044800440C000050555
:10024000048004407FBB000014E000E018E000E000
:1002500010E000E00000202020ED00E0FFFFFFFFA5
:10026000FFFFFFFFFFFFFFFFFFFFFFFFFFFFFFFF9E
:10027000FFFFFFFFFFFFFFFFFFFFFFFFFFFFFFFF8E
:10028000FFFFFFFFFFFFFFFFFFFFFFFFFFFFFFFF7E
:10029000FFFFFFFFFFFFFFFFFFFFFFFFFFFFFFFF6E
:1002A000FFFFFFFFFFFFFFFFFFFFFFFFFFFFFFFF5E
:1002B000FFFFFFFFFFFFFFFFFFFFFFFFFFFFFFFF4E
:1002C000FFFFFFFFFFFFFFFFFFFFFFFFFFFFFFFF3E
:1002D000FFFFFFFFFFFFFFFFFFFFFFFFFFFFFFFF2E
:1002E000FFFFFFFFFFFFFFFFFFFFFFFFFFFFFFFF1E
:1002F000FFFFFFFFFFFFFFFFFFFFFFFFFFFFFFFF0E
:10030000FFFFFFFFFFFFFFFFFFFFFFFFFFFFFFFFFD
:10031000FFFFFFFFFFFFFFFFFFFFFFFFFFFFFFFFED
:10032000FFFFFFFFFFFFFFFFFFFFFFFFFFFFFFFFDD
:10033000FFFFFFFFFFFFFFFFFFFFFFFFFFFFFFFFCD
:10034000FFFFFFFFFFFFFFFFFFFFFFFFFFFFFFFFBD
:10035000FFFFFFFFFFFFFFFFFFFFFFFFFFFFFFFFAD
:10036000FFFFFFFFFFFFFFFFFFFFFFFFFFFFFFFF9D
:10037000FFFFFFFFFFFFFFFFFFFFFFFFFFFFFFFF8D
:10038000FFFFFFFFFFFFFFFFFFFFFFFFFFFFFFFF7D
:10039000FFFFFFFFFFFFFFFFFFFFFFFFFFFFFFFF6D
:1003A000FFFFFFFFFFFFFFFFFFFFFFFFFFFFFFFF5D
:1003B000FFFFFFFFFFFFFFFFFFFFFFFFFFFFFFFF4D
:1003C000FFFFFFFFFFFFFFFFFFFFFFFFFFFFFFFF3D
:1003D000FFFFFFFFFFFFFFFFFFFFFFFFFFFFFFFF2D
:1003E000FFFFFFFFFFFFFFFFFFFFFFFFFFFFFFFF1D
:1003F000FFFFFFFFFFFFFFFFFFFFFFFFFFFFFFFF0D
:10040000FFFFFFFFFFFFFFFFFFFFFFFFDEF9FFFF23
:1004100010B5064C2378002B07D1054B002B02D0DA
:10042000044800E000BF0123237010BDA8FFFF1F98
:1004300000000000D8470000084B10B5002B03D087
:100440000749084800E000BF07480368002B00D1B7
:1004500010BD064B002BFBD09847F9E700000000C9
:10046000ACFFFF1FD8470000A8FFFF1F00000000DF
:1004700070B5040008000D0003F03CFE2368020084
:1004800029005B682000984770BDFFFFFA21F8B58E
:1004900003262B4B2B4C18682B4D89002278002A01
:1004A00049D02A78324246D0284F1A683F68D21B7A
:1004B000182A40D900210E2000F0A8FB00210F20AF
:1004C00000F0A4FB0021102000F0A0FB01210D2072
:1004D00000F09CFB01210B2000F098FB01210A2079
:1004E00000F094FB01210C2000F090FB0121092079
:1004F00000F08CFB00210E2000F068FB00210F2093
:1005000000F064FB0021102000F060FB00210B20B4
:1005100000F05CFB00210A2000F058FB00210C20B9
:1005200000F054FB0121092000F050FBFA2080006C
:1005300000F0C6FBF8BD1A68121A8A42AED9B9E7B4
:10054000EC000020CF010020E0010020E0030020AB
:10055000F0B5CF4D91B02B685C1C2C60A4B2002C80
:100560000CD1CC4E0D2031684B1E9941C9B200F020
:100570002DFB33682C605A4253413360AF21C64A89
:1005800089001368C54D01338B4201DC136019E00B
:1005900000230E2013602C6800F0D0FAC04BA4009A
:1005A000E0500F202C6800F0C9FABE4BA400E050C8
:1005B00010202C6800F0C2FABB4BA400E0502B685E
:1005C00001332B602B680E2B00DC42E10024B74B7B
:1005D000B5491C60B64B2C601C60B64B25001C60F6
:1005E000B54B20001C60B54B22001C608C462300DC
:1005F000AB4FAC4ED9590132401899596D1861462C
:100600005958043364180F2AF4D103F08DFCAC4917
:1006100003F004F803F066FCAA4B0790186028006A
:1006200003F082FCA64902F0F9FF03F05BFCA64B45
:1006300008901860200003F077FCA14902F0EEFF5B
:1006400003F050FC0024A14B09901860A04B0094CB
:100650001C6023000A9401940B9402940C9403945C
:100660000D9404940E9405940F940694009A0F2A06
:1006700077D08B4BE558280003F056FC061C0798F2
:1006800003F052FC9349071C03F092F9011C301C43
:1006900002F066FF002812D08F49381C03F088F959
:1006A000011C301C02F070FF002808D0049B5B196D
:1006B0000493039B0133039301230C930D93794B14
:1006C000E558280003F030FC061C089803F02CFCC9
:1006D0008049071C03F06CF9011C301C02F040FF3C
:1006E000002812D07C49381C03F062F9011C301C30
:1006F00002F04AFF002808D0029B5B190293019B7D
:100700000133019301230A930B93674BE5582800AB
:1007100003F00AFC061C099803F006FC6D49071C4F
:1007200003F046F9011C301C02F01AFF002812D019
:100730006949381C03F03CF9011C301C02F024FF0D
:10074000002808D0069B5B190693059B013305938F
:1007500001230E930F93009B043401330093012374
:1007600084E70F9A002A02D0524A069911600E9A25
:10077000002A02D04D4A05991160002B02D00F22A9
:10078000534B1A600D9B4D4D002B01D0049B2B60E9
:100790000C9B002B02D0414B039A1A600B9B002B41
:1007A00002D0454B029A1A600A9B002B02D0404BA4
:1007B000019A1A60286803F0B7FB384B041C1868CC
:1007C00003F0B2FB011C201C02F028FF03F08AFB9F
:1007D000394F2860386803F0A7FB354B041C1868B4
:1007E00003F0A2FB011C201C02F018FF03F07AFBAF
:1007F000304E3860306803F097FB2C4B041C1868AF
:1008000003F092FB011C201C02F008FF03F06AFBBE
:10081000324C306032492000FFF72AFE2968200060
:1008200001F09CF82F492000FFF722FE39682000D4
:1008300001F094F82C492000FFF71AFE31682000DF
:1008400001F08CF80023194A1360194A1360134A07
:10085000136000F04DFF002800DCB0E000F000FF66
:10086000224B0200186020239A43214B462A04D1D0
:10087000453A1A6000221F4B08E0442A3ED1423A12
:100880001A6000221B4B1C4918680A541A6096E033
:10089000E000002098000020500000203C000020D4
:1008A000000000205C0000209C000020DC000020F4
:1008B0004800002054000020C8FFFF1FE400002073
:1008C00000007041D8000020E8FFFF1F4400002016
:1008D000580000206666A63F3333333F00020020F5
:1008E0006042000063420000664200004C000020AD
:1008F00040000020E4FFFF1FD0FFFF1F452A4FD11B
:1009000000261E602F4B30481A681E60865403F084
:1009100098FB2E4C20602E4803F093FB2D4D23684E
:100920002860B34200DA26602B4B22689A4200DD31
:100930002360002801DA00232B60284B2A689A42A2
:1009400000DD2B60264E27493000FFF791FD296816
:10095000300001F003F824493000FFF789FD2168D9
:10096000300000F0FBFF300000F0B8FF01210C2048
:1009700000F02CF9642000F0A3F9298822680B20EC
:1009800001F054F82968226889B20A2001F04EF873
:10099000206800F095F900210C2000F017F90EE016
:1009A0001B68012B03D1074A0949136804E0022B95
:1009B00005D1044A04491368C8540133136011B0C7
:1009C000F0BDC046E4FFFF1FECFFFF1FCCFFFF1F81
:1009D000D0FFFF1FC4FFFF1F881300007017000027
:1009E0000002002069420000764200008023F0B53A
:1009F0001D4A10681840FCD172B61C4C2378002B9D
:100A000030D01B4B1F681B4B1A681B4BBA181E6853
:100A10001A4B92191D681A4B52191968194B521822
:100A20001B68194DD21892B25208184B2A4392B241
:100A30001A60174B17491B68174A9C46174B1B68CF
:100A400012680F68164963440E6816499B180968B6
:100A5000DB199B195A1893B25B082B43124A9BB2BD
:100A60001360207062B6F0BD24B00340E90000209E
:100A700038B003403CB0034040B0034044B00340B2
:100A800048B003404CB003400080FFFF2CB003404F
:100A900058B0034064B0034060B003405CB0034012
:100AA00068B003406CB0034030B003401B4B1C4A9D
:100AB00019781C4B082901D1002102E00A2903D131
:100AC0002E311160132206E00C2901D1283100E0FB
:100AD0003C21116012221A60134B1A78134B002A22
:100AE00001D0002200E001221A60114B1A78114B4C
:100AF000012A01D880220CE0042A01D8842208E0CF
:100B0000082A01D8852204E0102A01D8862200E0B4
:100B100087221A600122084B1A70704724FDFF1FBC
:100B200008B003400CB00340EB00002020B00340AD
:100B300025FDFF1F24B00340E9000020F8B50300A5
:100B40000020272B33D81A4AD45CFF2C2FD0194B06
:100B50001B78834201D0FFF749FF72B6102740226D
:100B6000154B144205D01A68BA431A603F231C4043
:100B700002E01A683A431A600123104E104D3460A7
:100B80002B7062B672B680223368134208D00D4BC8
:100B9000186800232B7062B60B4B1B78184106E0D7
:100BA0002B78002BDBD062B601F01EF8EAE7F8BD27
:100BB00078420000E90000200CB0034000B0034080
:100BC000EA00002010B00340E800002010B51A2809
:100BD00018D80C2358430C4A835810181C7D027AED
:100BE000224205D0002901D01A710BE01A7209E0E7
:100BF00043681A68002902D003210A4301E0022158
:100C00008A431A6010BDC046A0420000F0B51A2801
:100C10002FD80C2217004743164CE5196B682600A5
:100C2000012901D0042911D1504334583018257DB1
:100C3000027A20202A432275A22252001A601A68E2
:100C4000042901D1024313E0824311E038592C7A80
:100C5000027DA24302758022002908D0022902D118
:100C60000422FF3204E00022032901D18122520034
:100C70001A60F0BDA042000072B60C4B1A680C4B13
:100C800018680C4B1B6862B65B0104D53223934293
:100C90009B415B42C018084B9A1A084B5A43FA23EF
:100CA0009B005843920D10187047C04618E000E0B2
:100CB000EC00002004ED00E07FBB00005555010072
:100CC00070B50400FFF7D8FF0500002C0FD0FFF728
:100CD000D3FF074B401B984206D9013C002C06D09D
:100CE000FA239B00ED18F2E700F07EFFEFE770BDFE
:100CF000E703000080221E4BD20510B51A60802247
:100D0000002012061A601B4B1B4918601B4B1C4A23
:100D10001960282313601B4A1B4C13601B4A136085
:100D20001B4A13601B4A13601B4A1360092222608E
:100D30001A4C20601A4C21601A4C23601A4C236014
:100D40001A4C22601A4C20601A4801601A490B6044
:100D50001A490B601A4B1A60FFF7A8FE3220FFF702
:100D6000AFFF00F0DFFBAF204000FFF7A9FF10BD91
:100D700000E100E004800340FFBF00000880034062
:100D80000C80034014800340008003401C8003401B
:100D9000248003402C8003403480034004900340AF
:100DA000089003400C9003401490034000900340CF
:100DB00004A0034008A003400CA0034014A003407B
:100DC00000A003400223F0B50A4A0B4E1478C8274E
:100DD0002343DB00F518686008480578002D00D132
:100DE000403F09040F43F75001235D405C4005700C
:100DF0001470F0BD5801002000F8FF1FD001002042
:100E0000431E10B50020032B0ED872B6074A990076
:100E10008858002807D044685B008C500449048837
:100E20005A5A121B5A5262B610BDC04648010020E1
:100E3000D0030020431E0020032B09D872B6054AB8
:100E40009B009B58002B02D001305B68FAE762B62A
:100E50007047C0469C010020F8B572B60123174ABE
:100E6000082594461E00164964465A1EA25C2A4272
:100E70001AD05F017C589A00002C05D1CB1908309C
:100E80005860104BCB5109E03243D2005458002C2B
:100E90000AD18B18083058600B4B8B500B4A1378D3
:100EA000013B137062B608E00133052BDCD162B65A
:100EB0000022064B1A7000F0ABFBF8BD0C4400009A
:100EC00000F8FF1F88004000C8004000C601002055
:100ED000421E10B5032A30D8022380001843174B56
:100EE000C0001B1872B6164CA05C03280BD802F089
:100EF00085FA16040207052012E0083302200FE0ED
:100F0000083304200CE00F48920014580E4B002CBC
:100F100001D1115001E09858416099500CE0032034
:100F2000A0540A0008325A60C822180700D4403A78
:100F3000098809040A431A6062B610BD00F8FF1F51
:100F4000040100209C010020AC010020F7B5B54B46
:100F50001C781D000423E4B21C421DD0B24B1B7848
:100F6000002B16D0B14A1378DBB2002B05D0013B21
:100F7000DBB21370002B00D100BEAD4A1378DBB298
:100F8000002B06D0013BDBB21370002B01D100F027
:100F900081FC0422A34B1A700822224000D157E2A0
:100FA000A44BA54F1B78DBB29C08E4001D093C193B
:100FB000002D00D0DDE1226863689006000F013843
:100FC0000C2800D9D1E102F023FA94019401D00158
:100FD000D001D001D001D001D001AD01D001D001AC
:100FE000D0010D001A68954E5B6895497360002327
:100FF0000B600121934832602060934C92B22170C3
:10100000924C3B61BB610190A24218D8D020C00035
:10101000824200D3E5E081204000824200D1C2E05C
:1010200006D8802A00D1A9E0822A00D1ABE0F5E001
:10103000874B9A4200D1C5E0FF33FF331AE0854861
:10104000824200D152E110D888231B019A4200D17C
:101050008EE080339A4200D0E0E03C003D00B27860
:10106000714B20341A70A03508E07B498A4200D1C8
:10107000CCE07A4B9A4200D112E1CFE08022236883
:10108000134203D06068083800F0C2FA0834AC425A
:10109000F4D100242500724BE058002805D04368A5
:1010A000009300F0B5FA0098F7E76D4B18516D4BBF
:1010B000E0506D4BE058002805D04368009300F0E5
:1010C000A7FA0098F7E7684B684A1851684BE05058
:1010D0006B00D052674BE85C0238032807D802F057
:1010E0008DF902040204002200E001225A55013564
:1010F0000434042DCFD1002301245F4D2B705F4BAE
:101100005F49621EE3188A5C9B001A7008231A422A
:1011100020D000F05FFA6301002805D0FA180830EB
:101120005060584AFA5003E0F8502B7801332B7086
:1011300000F050FA0122A3001343DB00002805D081
:10114000FA1808305060019AFA5003E0F8502B78F2
:101150009B182B7002210023A2001143C9007B5071
:1011600003210A438A400134BB50052CC7D198E0C3
:101170002D4B454C1B7823700B0093E0424C2370A1
:10118000637002238EE0B288042A47D83E4C920056
:10119000237063703D4BD218022312781A4200D19B
:1011A00080E021707EE07F23B2881A40042A35D87F
:1011B0007388002B32D102203449920052181178E2
:1011C000814329E07F23B2881A40042A26D87388F5
:1011D000002B23D102202D4992005218117801438F
:1011E0001AE07288B1882A4B5C68002C16D01888E7
:1011F000904209D15888884206D1120A032A01D1A7
:1012000023784FE01B894DE00C33EDE7214A11684C
:10121000214A1160B178214A117042E00F221B4B24
:101220001A7063E080200740CF01002059010020A0
:10123000D10100209020074000F8FF1FBC010020D2
:10124000F0000020C8004000D0010020810600000E
:1012500002030000212000002122000021230000C1
:1012600048010020F40000209C010020D003002051
:10127000AC01002004010020C601002030C801108C
:101280000C44000088004000C7010020C020074037
:1012900010440000EC000020E0030020E0010020EA
:1012A00000231C00F5889D4200D91D002E00402D12
:1012B00000D9402620003100FFF784FDA419AD1BA2
:1012C00003D12F00402E04D010E04027AF4200D9B8
:1012D0002F0020003900FFF775FDE419ED1B01D147
:1012E000402F03D1764B1C60764B1D800122764B3C
:1012F0003AE07649764A0988914210D10022754930
:10130000985C88540132072AFAD10B68862B02D1E7
:10131000714B08321A7000210800FFF753FD6F4B24
:10132000236022E0664F3E68002E13D0654B1C8878
:101330002500402C00D9402529003000FFF742FD50
:10134000641B604BA4B21C80002C01D1402D00D145
:1013500074193C60A0225D4BD2001988914204D1DF
:1013600000225A709A785E4B1A700122564B1A70FE
:101370006AE008226068013D0838EDB2134037D0BA
:1013800000F046F95749A8004258574B002A1CD094
:10139000566846501100585D0831616003280BD82B
:1013A00002F02CF802040608032104E0022102E006
:1013B000052100E0042159550821C8230C4200D121
:1013C000403B1288120413433DE0585D032808D8BF
:1013D00002F014F83A3A0204002200E001225A55C1
:1013E00032E008221440621E944102345C552BE026
:1013F0002268110C8AB2028000291ED03B4943802A
:101400004360AB005F583A4E002F01D1585001E0C5
:10141000F158486037496D00F0506B5AD2186A5243
:1014200000F0D8F8002802D00830606005E0324AA9
:10143000206013780133137006E008231C4201D1A9
:101440002E4B00E0254B236008222D4B1A707EE5C1
:10145000012004421ED002231B49284C0B70294B4B
:10146000294E1A70294B1C609C60294C1A61DC6063
:101470000D249A615E60274B1C70FF23264C23705D
:10148000174C2B702270254A13709F22244B1A7020
:10149000087013E063B2002B04DA0D221D4B1A70A2
:1014A00080232B700222144204D01B490B78DBB23C
:1014B0000B702A7010231C4200D02B70F7BDC04661
:1014C000F0000020C401002094200740BC0100204F
:1014D00021200000D803002059010020C80040004E
:1014E000982007409C0100200401002048010020B2
:1014F000F4000020D0030020C60100208800400036
:1015000080200740580100200801002000F8FF1F3C
:101510005C010020C0200740882007408C20074045
:101520008420074010B501F0A7FC002211001B4BDE
:10153000D150981808324160882AF9D18020184982
:10154000C0020A6802430A601A0A1649D2B20A7037
:101550001A0C1549D2B20A70144A1B0E1370FF23DD
:10156000134A00201370134A13491370134A13705F
:1015700001220A701249087012490A70124A116851
:1015800099430B0070210B43136080220F4B5204D0
:101590001A6010220E4B1A7010BDC04600F8FF1FD3
:1015A000348004409C200740B0200740B42007400E
:1015B00080200740882007409420074010200740E3
:1015C000002107408420074018E400E000E100E02B
:1015D0000821074070B572B60B4D2C68200001F051
:1015E000E7FF0B2802DD62B600200CE080231B061B
:1015F000C3409C432C6062B648235843034B1818E1
:1016000000230360436070BD28FDFF1FC0F9FF1F6A
:1016100010B504000E484821201A01F003FF0B28E2
:1016200014D80C4B1B78002B07D00B4B1B78002BCE
:1016300003D02000FFF710FC08E072B680231B06E1
:10164000C340064A11680B43136062B610BDC04622
:10165000C0F9FF1FC6010020CF01002028FDFF1F99
:1016600070B5114D2B68002B0CD0286843885A1C8C
:10167000C3181C7A03889A4212D3FFF7C9FF0023CC
:101680002B600EE0094B1B78002B02D10120404259
:1016900008E00320FFF7B4FB28600028E5D1F5E758
:1016A0004280200070BDC046DC010020CF01002038
:1016B00010B50D4C2368002B03D02268002A0ED1F0
:1016C00003E00A4B1B78002B02D10120404209E0C5
:1016D0000320FFF795FB20600028EED1F5E7538843
:1016E000D318187A10BDC046DC010020CF010020BD
:1016F000054B9888054B1A68002A03D01388528836
:101700009B1AC0187047C046D0030020DC0100209F
:1017100010B50A4B1B78002B0FD0094C206800280D
:1017200003D0FFF775FF002323600320FFF768FB5A
:10173000002802D0FFF76CFFF7E710BDCF010020B3
:10174000DC010020314A0123F0B50C00170085B000
:101750000190029113700393002C53D02C4D2B68F1
:10176000002B25D12B4E2C4B1B78DBB2002B01D14B
:101770003B7017E00420FFF75DFB072809D86B4694
:101780001B7B3B70FFF726FF214B186000280FD111
:101790003870013E214B002E02D01A78002A04D066
:1017A00001221A70012040422EE000F01DFADAE713
:1017B00000221A4B29681A7040234A88981A23007D
:1017C000844200D90300080008308018D2184A80EB
:1017D0000022E41A934204D0019EB65C8654013282
:1017E000F8E7019AD31801934B883F2B06D9402381
:1017F00004200B80FFF76CFB00232B600522084BB5
:101800001A70A9E702983C7005B0F0BDD201002023
:10181000D401002009750000CF010020D80100206C
:10182000D101002007B56B46D8710733012118009C
:10183000FFF788FF0EBDFFFFF7B5124B1B78002B9B
:101840001FD00126104F114B3C681E700193104DA4
:10185000002C09D000262E706388210023800420EC
:10186000FFF736FB3E6009E0FFF7B4FE011E04D02F
:1018700004202C70FFF72CFB00E02E700023019A4F
:101880001370F7BDCF010020D4010020D201002049
:10189000D101002070B50E4B1C78E4B2002C15D19C
:1018A0000C4D2968002906D04B8804200B80FFF7D7
:1018B0000FFB2C600AE0FFF78DFE011E03D0042011
:1018C000FFF706FB02E00122034B1A7070BDC04611
:1018D000D2010020D4010020D101002037B502251B
:1018E00004002A00054901A802F0FBFB23682A0036
:1018F0005B6801A9200098473EBDC046E443000054
:10190000F0B50D000F2185B09446134A6944ACB27E
:101910002F0C574301345443BBB2260C1C19A41995
:101920003B0C240CDB19E3180A245B085C432D1BD9
:10193000303501390D701D1EE9D16346002B02D0F0
:101940002D2301390B70CA4304ABD21803685B68BE
:10195000984705B0F0BDC04633330000002210B5F3
:10196000914201DA49422D32FFF7CAFF10BD10B58E
:10197000040001F0F9FC200010BDFFFF214A70B502
:101980001368150020482149002B09D00068097808
:10199000013B0171591D01D103235B42136030E00B
:1019A00003680A781A4C1A702368002B23D0194B4D
:1019B00000211E68301C01F0DDFD002816D11649FB
:1019C000301C01F0E1FD002810D11449301C01F059
:1019D000EFFFFC21890502F0FFF801F007FE02008D
:1019E000232803D90E490F4801F064FC23682B60BB
:1019F0000023236005E00B4801F0B6FCFF220A4BF0
:101A00001A7070BDF8010020EC010020F4010020E4
:101A1000F0010020FC010020ABAA2A4D0000C041CB
:101A20007D190000E40100202CFDFF1FF8B5060021
:101A30000D001A2877D8002A08D04A43FA2110004E
:101A4000890001F0EFFC4400013401E0032464420A
:101A5000280002F0B1FA011C334801F0DFFD0C232D
:101A60007343051C3148C318596872B6304F0200E1
:101A70003B789E4216D12F4E281C316801F06AFD3A
:101A80002D4B002806D001201A6810400138041997
:101A90001C6047E0294A1968146001220A40356039
:101AA0001A603FE01A2B04D8254B26481B680078A3
:101AB00018700C2373433E70D65818003700101866
:101AC000027A1F4B1F4808371F600270327272B6CD
:101AD0001A680378167B3343137362B6A2235B0044
:101AE0000B60154B00211C60124B281C1D6001F07F
:101AF00041FD002816D11449281C01F045FD00289D
:101B000010D11249281C01F053FFFC21890502F075
:101B100063F801F06BFD0200232803D90C490D483E
:101B200001F0C8FB62B6F8BD0024F448A0420000F2
:101B30002CFDFF1FFC010020F8010020F001002017
:101B4000EC010020F4010020ABAA2A4D0000C041A6
:101B50007D190000E4010020002310B50448054A67
:101B6000036005498033037102F064FA10BDC0467A
:101B7000E401002020FDFF1F6F19000010B5FEF7E3
:101B800085FCFEF7E5FC00F02FF8FAE710B5FFF74B
:101B9000BFFD10BD10B5FFF74FFE10BD10B5FFF72C
:101BA00087FD10BD10B5FFF75BFD10BD10B5FFF749
:101BB0009FFD10BD10B508001100FFF7C3FD10BD5B
:101BC00010B50800FFF72EFE10BD70470022FA2165
:101BD000034B89001A711A73024A99601A607047A0
:101BE00000020020F043000010B5104C2378002BB9
:101BF0001BD101332370FFF77BFD002801D0FFF7D5
:101C0000E4FF00F033FB002801D001F001FA00F0FE
:101C100073FD002801D001F09BFA01F04DF8002877
:101C200001D001F035FB0023237010BD100200200D
:101C3000024A1368013313607047C046EC0000206D
:101C400070B580258026ED02F6000B4C23682B42F0
:101C500001D0FFF77BF92368334201D000F074FB19
:101C600023681B0501D500F0B5FD2368DB04ECD526
:101C700001F090F8E9E7C0463480044010B5FFF762
:101C8000DFFFFFFF0022014B1A6070470081044014
:101C90007047FFFFEFF31383002B22D1EFF3108285
:101CA0001800002A1FD1EFF3058100290FD0100082
:101CB0000F290ED90B00103B0B4A9B089B009B1869
:101CC000032218680A40D200D040C0B201E0802050
:101CD0004000EFF31183002B05D0834203D218009C
:101CE00001E001204042704700E400E0F8B5060042
:101CF0000D00170000243900300001F019FC0B0022
:101D00003733DBB2092901D83031CBB230002B5543
:101D1000390001F087FB061E01D00134EBE72B19D7
:101D200058702B005A1B944206DD1A78295D1970F1
:101D30002A550133013CF5E72800F8BD80212C4AE3
:101D4000C90013680B43136000232A4A13702A4A00
:101D500013702A4A13702A4A13702A4A13702A4BA6
:101D60001B78032B0FD004D8002B0FD1274A284B08
:101D70000BE0152B04D0192B08D1264A264B04E082
:101D8000224A264B01E0264A264B1A60264B1B7836
:101D9000042B11D005D8012B12D1D122234B920054
:101DA0000DE0052B04D0182B0AD1214A214B06E067
:101DB000D122214B920002E09122204B92001A6026
:101DC0001F4BC204D20E1A700022C0B258709A7013
:101DD0002C32DA70FF231B4A116899430B00402113
:101DE0000B4313608022184B52011A607047C046A3
:101DF000348004409D02002019020020A40200202B
:101E00009E020020180200205A0200201303000046
:101E100040A004401304000054D0044018C0044003
:101E200013020000049004402DFDFF1F44A0044055
:101E30004404000050D004401CC0044008900440FA
:101E400000A006400CE400E000E100E0132110B522
:101E5000164B9A788A431100032202400A43410735
:101E600001D510210A439A700F2210490240042A1A
:101E700003D140248A7922438A7110215A798A43F6
:101E8000084200D00A4310215A719A798A43840685
:101E900000D50A4305499A71C30506D520204B7821
:101EA0000A78DBB202430A704B7010BD00A00640F6
:101EB0002B4B10B51B685B0551D52A4B1B78DBB249
:101EC000002B02D0FFF790FEF7E78021264A490158
:101ED0001160264AD370264B1B78032B12D005D8ED
:101EE000002B13D10422234BFF320EE0152B05D01B
:101EF000192B0BD10422204BFF3206E004221F4B8A
:101F0000FF3202E004221E4BFF321A601D4B1A788A
:101F10007F231340042B12D005D8012B13D10422A8
:101F2000194BFF320EE0052B05D0182B0BD10422E4
:101F3000164BFF3206E00422154BFF3202E004226A
:101F4000144BFF321A600023134A1370134A1370A4
:101F5000134B1B68002B02D0124A12781A7110BD65
:101F6000348004401802002080E100E000A0064018
:101F70005A02002040A0044054D0044018C004403D
:101F8000049004402DFDFF1F44A0044050D00440A5
:101F90001CC00440089004409D020020190200204B
:101FA000140200205B02002070B505000C4B1C7869
:101FB000E4B2002CFBD128000121FEF727FE280007
:101FC0002100FEF703FE0C236B431800054A064B65
:101FD000815810181960027A044B1A7070BDC046FF
:101FE00018020020A0420000A00200209C02002055
:101FF00010B5002901D080231843224C227890424A
:102000003ED0214B1B685B0539D57F231340042B41
:102010000FD004D8012B0FD100221C4B0BE0052B55
:1020200004D0182B08D10022194B04E00022194BD0
:1020300001E00022184B1A606023002900D11C3BEC
:102040007F220240042A15D006D8012A17D1C022C7
:10205000920013430D4A11E0052A06D0182A0ED12A
:102060008022D20013430A4A08E0C02292001343A0
:10207000084A03E0802292001343074A136020704D
:1020800010BDC0462DFDFF1F3480044044A0044015
:1020900050D004401CC0044008900440194A1378F2
:1020A00083422ED018490968490529D5032B0FD042
:1020B00004D8002B0FD115490B600CE0152B04D070
:1020C000192B08D10021124B04E00021114B01E033
:1020D0000021114B196003280FD004D800280FD11C
:1020E0000E490A4B0BE0152804D0192808D10C49D9
:1020F000074B04E00949074B01E00A49064B196008
:10210000107070475A0200203480044040A0044000
:1021100054D0044018C0044004900440130300004D
:1021200013040000130200000E4B70B51A68002360
:10213000520515D50C4C1A2811D80C221300434314
:102140000A490B4D5A58CB181B7A012122602B707B
:10215000FEF75CFD23682A781A72012300E02360F1
:10216000180070BD3480044014020020A04200001A
:102170005B02002000207047F8B51F4B06001B686B
:102180005B0537D51D4B1B68002B02D01C4A12780B
:102190001A711C4D2C7801343F2C0AD9002408E018
:1021A000FFF778FD402815DC17490B795BB2002B4F
:1021B00004DB164F3B78A342F2D010E03B780133AA
:1021C0003F2B00D90023124AD25CDBB2D2B2CA71D3
:1021D0003B70EEE7FF28ECDDFFF706FDE9E70122A3
:1021E0000B4BF6B21E550B4BE4B21A70064BAB32DA
:1021F0002C70DA70F8BDC04634800440A002002084
:102200009C020020A402002000A006409E020020A4
:102210001A0200201802002070B504004518AC42D4
:1022200004D02078FFF7A8FF0134F8E770BDFFFF66
:1022300010B5044B1B78002B02D0FFF7D5FCF8E754
:1022400010BDC04618020020064B1878064BC2B2DB
:102250001B78D8B2824201D33F3000E00138801AA7
:102260007047C046A40200209E020020054B18784B
:10227000054BC0B21A78D3B2984200D24030C01A8F
:102280007047C0469D0200201902002010B5124B75
:1022900012491A780878D2B2C3B29A4218D00133E0
:1022A0003F2B00D900230E48C45CD8B208700D49FA
:1022B000E4B20968200000290CD0934200D94032D2
:1022C000D31A20001A2B05DC074B1B780B7201E098
:1022D0000120404210BDC0469D020020190200208E
:1022E0005C020020140200205B020020084B1A78D8
:1022F000084B1B78DBB29A4207D001333F2B00D941
:102300000023054AD05CC0B201E001204042704782
:102310009D020020190200205C020020064B074AA3
:102320001B78DBB21370064B1B68002B02D0054AEA
:1023300012781A727047C046190200209D020020D0
:10234000140200205B02002030B5234A13799B065B
:1023500011D5224BD479187819000130E4B200234A
:102360003F2800DC03001E480078834203D01D484C
:10237000C454DBB20B70D1781748C9B24BB2002BF2
:1023800017DA03795BB2002B13DA174B174C1D7861
:102390002378DBB29D4202D16C23C37009E0013384
:1023A0003F2B00D900231248C05CDBB2C0B2D07111
:1023B0002370402319420ED0117919420BD000210D
:1023C0000C4B19700C4B1B688B4202D00B490978DF
:1023D00019722C23D37030BD00A006409D0200204E
:1023E000190200205C020020A40200209E020020AE
:1023F0001A02002018020020A00200209C020020E7
:102400008021164A090113680B4313600023144A04
:1024100014491370144A1370144A1370144A137039
:10242000144A1370144A1160144A31311160144A6D
:10243000C104C90EC0B21170507093702C33D370A8
:10244000104A114B11680B408021C9010B431360E6
:1024500080220E4B92011A607047C04634800440BF
:102460001803002013030000AD0200202003002009
:1024700019030020AC0200200CB0044010B004404E
:1024800000B006400CE400E0FF00FFFF00E100E0C8
:10249000132110B5164B9A788A431100032202408B
:1024A0000A43410701D510210A439A700F221049AF
:1024B0000240042A03D140248A7922438A711021E0
:1024C0005A798A43084200D00A4310215A719A79F6
:1024D0008A43840600D50A4305499A71C30506D587
:1024E00020204B780A78DBB202430A704B7010BD93
:1024F00000B00640124B10B51B681B051ED5114BD2
:102500001B78DBB2002B02D0FFF76EFBF7E78021D0
:102510000D4A890111600D4A0D49D3700422FF3222
:102520000A600C490A600C4A13700C4A13700C4B79
:102530001B68002B02D00B4A12781A7110BDC046DE
:1025400034800440AC02002080E100E000B006408E
:102550000CB0044010B0044018030020AD0200206D
:10256000A8020020D602002070B505000C4B1C7894
:10257000E4B2002CFBD128000121FEF747FB280024
:102580002100FEF723FB0C236B431800054A064B82
:10259000815810181960027A044B1A7070BDC04639
:1025A000AC020020A04200001C0300201703002002
:1025B000704770470E4B70B51A680023120515D589
:1025C0000C4C1A2811D80C22130043430A490B4D16
:1025D0005A58CB181B7A012122602B70FEF716FB8C
:1025E00023682A781A72012300E02360180070BD66
:1025F00034800440A8020020A0420000D60200203F
:1026000000207047F8B51F4B06001B681B0537D527
:102610001D4B1B68002B02D01C4A12781A711C4DEE
:102620002C780134272C0AD9002408E0FFF732FB6C
:10263000402815DC17490B795BB2002B04DB164FE1
:102640003B78A342F2D010E03B780133272B00D92E
:102650000023124AD25CDBB2D2B2CA713B70EEE701
:10266000FF28ECDDFFF7C0FAE9E701220B4BF6B2D9
:102670001E550B4BE4B21A70064BAB322C70DA705D
:10268000F8BDC046348004401C030020170300201E
:102690002003002000B0064019030020AE020020F5
:1026A000AC02002070B504004518AC4204D020787C
:1026B000FFF7A8FF0134F8E770BDFFFF10B5044B2A
:1026C0001B78002B02D0FFF78FFAF8E710BDC04649
:1026D000AC020020064B1878064BC2B21B78D8B269
:1026E000824201D3273000E00138801A7047C0468B
:1026F0002003002019030020054B1878054BC0B2B9
:102700001A78D3B2984200D24030C01A7047C046FF
:1027100018030020AD02002010B5124B12491A78A0
:102720000878D2B2C3B29A4218D001333F2B00D9F5
:1027300000230E48C45CD8B208700D49E4B20968A1
:10274000200000290CD0934200D94032D31A200037
:102750001A2B05DC074B1B780B7201E0012040426D
:1027600010BDC04618030020AD020020D702002093
:10277000A8020020D6020020084B1A78084B1B78CC
:10278000DBB29A4207D001333F2B00D90023054A20
:10279000D05CC0B201E00120404270471803002025
:1027A000AD020020D7020020064B074A1B78DBB29F
:1027B0001370064B1B68002B02D0054A12781A7260
:1027C0007047C046AD02002018030020A802002078
:1027D000D602002030B5234A13799B0611D5224B2F
:1027E000D479187819000130E4B200233F2800DCC6
:1027F00003001E480078834203D01D48C454DBB256
:102800000B70D1781748C9B24BB2002B17DA037995
:102810005BB2002B13DA174B174C1D782378DBB211
:102820009D4202D16C23C37009E00133272B00D9EC
:1028300000231248C05CDBB2C0B2D07123704023C9
:1028400019420ED0117919420BD000210C4B19708E
:102850000C4B1B688B4202D00B49097819722C2350
:10286000D37030BD00B0064018030020AD02002038
:10287000D70200202003002019030020AE02002010
:10288000AC0200201C030020170300208021204AF6
:10289000490113680B43136000231E4A13701E4A3C
:1028A00013701E4A13701E4A13701E4A13701E4B7B
:1028B0001B78062B04D0072B05D11C4A1C4B01E0CA
:1028C0001A4A1C4B1A601C4B1B78082B05D0142B82
:1028D00007D1D122194B920002E0D122184B92006D
:1028E0001A60184BC204D20E1A700022C0B258707F
:1028F0009A702C32DA70144A144B11680B40802104
:10290000C9030B4313608022114BD2011A60704738
:102910003480044094030020290300209C030020FD
:1029200095030020280300202EFDFF1F1303000045
:1029300008C0044010C004402FFDFF1F14C0044015
:102940000CC0044000C006400CE400E0FFFF00FFA4
:1029500000E100E0132110B5164B9A788A4311006C
:10296000032202400A43410701D510210A439A700D
:102970000F2210490240042A03D140248A792243BD
:102980008A7110215A798A43084200D00A431021E3
:102990005A719A798A43840600D50A4305499A7187
:1029A000C30506D520204B780A78DBB202430A70B3
:1029B0004B7010BD00C006401E4B10B51B68DB04F9
:1029C00037D51D4B1B78DBB2002B02D0FFF70CF97B
:1029D000F7E78021194AC9011160194AD370194BD0
:1029E0001B78062B05D0072B07D10422164BFF328C
:1029F00002E00422154BFF321A60154B1A787F2330
:102A00001340082B05D0142B07D10422114BFF32A1
:102A100002E00422104BFF321A6000230F4A1370A9
:102A20000F4A13700F4B1B68002B02D00E4A12780E
:102A30001A7110BD348004402803002080E100E0BA
:102A400000C006402EFDFF1F08C0044010C0044017
:102A50002FFDFF1F14C004400CC00440940300204D
:102A600029030020240300205203002070B5050034
:102A70000C4B1C78E4B2002CFBD128000121FEF79E
:102A8000C5F828002100FEF7A1F80C236B431800BD
:102A9000054A064B815810181960027A044B1A70C7
:102AA00070BDC04628030020A0420000980300200B
:102AB0009303002010B5002901D080231843154A44
:102AC0001478A04224D0144B1B68DB041FD57F234D
:102AD0002340082B04D0142B05D100240F4B01E018
:102AE00000240F4B1C606023002900D11C3B7F2178
:102AF0000140082906D0142909D1C02189000B43BF
:102B0000064903E0C02189000B4305490B601070A2
:102B100010BDC0462FFDFF1F3480044014C0044088
:102B20000CC004400E4A1378834218D00D4909683E
:102B3000C90413D5062B04D0072B05D100210A4B5D
:102B400001E00021094B1960062804D0072805D1AF
:102B50000749054B01E00649044B196010707047A6
:102B60002EFDFF1F3480044008C0044010C0044004
:102B7000130300000E4B70B51A680023D20415D55C
:102B80000C4C1A2811D80C22130043430A490B4D50
:102B90005A58CB181B7A012122602B70FEF736F8A9
:102BA00023682A781A72012300E02360180070BDA0
:102BB0003480044024030020A0420000520300207F
:102BC00000207047F8B51F4B06001B68DB0437D5A3
:102BD0001D4B1B68002B02D01C4A12781A711C4D29
:102BE0002C780134272C0AD9002408E0FFF752F88A
:102BF000402815DC17490B795BB2002B04DB164F1C
:102C00003B78A342F2D010E03B780133272B00D968
:102C10000023124AD25CDBB2D2B2CA713B70EEE73B
:102C2000FF28ECDDFEF7E0FFE9E701220B4BF6B2EF
:102C30001E550B4BE4B21A70064BAB322C70DA7097
:102C4000F8BDC04634800440980300209303002060
:102C50009C03002000C00640950300202A030020AA
:102C60002803002070B504004518AC4204D0207839
:102C7000FFF7A8FF0134F8E770BDFFFF10B5044B64
:102C80001B78002B02D0FEF7AFFFF8E710BDC0465F
:102C900028030020064B1878064BC2B21B78D8B226
:102CA000824201D3273000E00138801A7047C046C5
:102CB0009C03002095030020054B1878054BC0B2FB
:102CC0001A78D3B2984200D24030C01A7047C0463A
:102CD000940300202903002010B5124B12491A78E2
:102CE0000878D2B2C3B29A4218D001333F2B00D930
:102CF00000230E48C45CD8B208700D49E4B20968DC
:102D0000200000290CD0934200D94032D31A200071
:102D10001A2B05DC074B1B780B7201E001204042A7
:102D200010BDC04694030020290300205303002057
:102D30002403002052030020084B1A78084B1B780C
:102D4000DBB29A4207D001333F2B00D90023054A5A
:102D5000D05CC0B201E001204042704794030020E3
:102D60002903002053030020064B074A1B78DBB2DF
:102D70001370064B1B68002B02D0054A12781A729A
:102D80007047C0462903002094030020240300203C
:102D90005203002030B52C4A13799B0623D52B4BC8
:102DA000D479187819000130E4B200233F2800DC00
:102DB000030027480078834203D02648C454D8B281
:102DC00008702549086800280DD024490978C9B23F
:102DD0008B4201D35B1A01E05B1A4033272B02DDE3
:102DE0001F4B1B780371D1781748C9B24BB2002B27
:102DF00017DA03795BB2002B13DA1A4B174C1D78E4
:102E00002378DBB29D4202D16C23C37009E0013309
:102E1000272B00D900231448C05CDBB2C0B2D071AC
:102E20002370402319420ED0117919420BD0002192
:102E30000E4B19700E4B1B688B4202D00D4909785E
:102E400019722C23D37030BD00C0064094030020BB
:102E500029030020530300202403002095030020B1
:102E6000520300209C0300202A0300202803002096
:102E7000980300209303002030B585B072B670220D
:102E80004121154B1A70154A1170154A32391170CB
:102E900080221A701A7852B2002AFBDA114B186895
:102EA00062B6114B984201D80A23584301AC0A225A
:102EB0002100FEF71BFF00230C48E15C0500002900
:102EC00005D05A008218013351800A2BF5D1013305
:102ED0005B002B7005B030BD0000024007000240CF
:102EE00006000240080002407F969800B8FDFF1FD0
:102EF00010B50368C9B21B68984710BD10B50368C8
:102F0000C9B21B68984710BD10B50368C9B21B68E9
:102F1000984710BD10B50368C9B21B68984710BD2B
:102F200010B50800FFF728F9012010BD10B5080002
:102F3000FFF722F9012010BD70B508000D0001F067
:102F4000D9F8040001002800FFF766F9200070BDE1
:102F500010B5140008001100FFF75EF9200010BD45
:102F600010B5FFF771F910BD10B5FFF7D7F910BD17
:102F700010B50800FFF7FEF8431E9841C0B210BD1F
:102F800010B50800FFF7D0F8431E9841C0B210BD3D
:102F900010B508001100FFF72BF810BD10B50800A0
:102FA000FFF77CF810BD10B50800FEF7FDFF10BD5F
:102FB00010B5FEF77DFF10BD10B5044B4808C018D2
:102FC00000F030FAFEF7BAFE10BDC046C0C62D00B4
:102FD00010B51400054B4808C01800F023FAFEF79E
:102FE000ADFE2000FEF732FF10BDC046C0C62D006A
:102FF00010B5FFF71DF910BD10B5FFF777F910BD3B
:1030000010B5FFF743F910BD10B5FFF72FF910BD4C
:103010007047FFFF0022FA21034B89001A711A73CF
:10302000024A99601A607047A00300206C440000B7
:1030300010B50368C9B21B68984710BD10B5036886
:10304000C9B21B68984710BD10B50368C9B21B68A8
:10305000984710BD10B50368C9B21B68984710BDEA
:1030600010B50800FFF7CEFA012010BD10B508001A
:10307000FFF7C8FA012010BD70B508000D0001F07F
:1030800039F8040001002800FFF70CFB200070BD98
:1030900010B5140008001100FFF704FB200010BD5C
:1030A00010B5FFF717FB10BD10B5FFF77DFB10BD86
:1030B00010B50800FFF7A4FA431E9841C0B210BD36
:1030C00010B50800FFF776FA431E9841C0B210BD54
:1030D00010B508001100FFF76BFA10BD10B508001D
:1030E000FFF767FA10BD10B50800FFF73DFA10BDF5
:1030F00010B5FFF7FFF910BD10B5044B4808C01814
:1031000000F090F9FFF77CF910BDC04660E31600AF
:1031100010B51400054B4808C01800F083F9FFF7FC
:103120006FF92000FFF7B4F910BDC04660E3160048
:1031300010B5FFF7C3FA10BD10B5FFF71DFB10BDAA
:1031400010B5FFF7E9FA10BD10B5FFF7D5FA10BDBD
:103150007047FFFF0022FA21034B89001A711A738E
:10316000024A99601A607047B0030020CC44000006
:1031700010B50368C9B21B68984710BD10B5036845
:10318000C9B21B68984710BD10B50368C9B21B6867
:10319000984710BD10B50368C9B21B68984710BDA9
:1031A00010B50800FFF70EFD012010BD10B5080096
:1031B000FFF708FD012010BD70B508000D0000F0FC
:1031C00099FF040001002800FFF74CFD200070BDAE
:1031D00010B5140008001100FFF744FD200010BDD9
:1031E00010B5FFF757FD10BD10B5FFF7BDFD10BDC1
:1031F00010B50800FFF7E4FC431E9841C0B210BDB3
:1032000010B50800FFF7B6FC431E9841C0B210BDD0
:1032100010B508001100FFF74DFC10BD10B50800F7
:10322000FFF780FC10BD10B50800FFF71FFC10BDB4
:1032300010B5FFF7C1FB10BD10B5044B4808C0180E
:1032400000F0F0F8FFF722FB10BDC04660E3160067
:1032500010B51400054B4808C01800F0E3F8FFF75C
:1032600015FB2000FFF776FB10BDC04660E316009B
:1032700010B5FFF703FD10BD10B5FFF75DFD10BDE4
:1032800010B5FFF729FD10BD10B5FFF715FD10BDF6
:103290007047FFFF0022FA21034B89001A711A734D
:1032A000024A99601A607047C00300202C45000054
:1032B0007047FFFF036870B5002B04D000249C60AA
:1032C0000134DC6018E080251D4C2D0423682B435D
:1032D0002360C04601241B4B1C601B4B1B4C03602E
:1032E00003689D68002D07D010330360A342F7D90F
:1032F00000230360180022E00468154B22600322BB
:10330000E3181B11134D9E00A2607151124A0179FE
:103310001248D15411785378114A994205D803685C
:1033200009041A400A43026004E001681B040A40D1
:1033300013430360802201200A4BD2031A6070BD40
:103340003C80044000700340007103401F71034043
:10335000008FFCBFD0FDFF1FCEFDFF1F14E400E077
:10336000FFFF00FF00E100E0026830B5002A1ED038
:103370000F4B1049D3181B110F4D9C0065500021B5
:1033800091600E4AFF31D154117853780C4C0D4A9C
:10339000994205D8236809041A400A43226004E0D0
:1033A00021681B040A40134323600023036030BDDF
:1033B000008FFCBFD0FDFF1FB1320000CEFDFF1F0C
:1033C00014E400E0FFFF00FF094B10B51A68002A63
:1033D00004D001221A60074B1B689847064B1A68F5
:1033E000002A04D001221A60024B5B68984710BD86
:1033F0000C710340D0FDFF1F1C71034002B47146E5
:1034000049084900095C49008E4402BC7047C04627
:1034100003B47146490840004900095A49008E44E6
:1034200003BC7047002243088B4274D303098B42CC
:103430005FD3030A8B4244D3030B8B4228D3030C84
:103440008B420DD3FF22090212BA030C8B4202D326
:103450001212090265D0030B8B4219D300E0090A4E
:10346000C30B8B4201D3CB03C01A5241830B8B4257
:1034700001D38B03C01A5241430B8B4201D34B0340
:10348000C01A5241030B8B4201D30B03C01A5241A5
:10349000C30A8B4201D3CB02C01A5241830A8B422A
:1034A00001D38B02C01A5241430A8B4201D34B0213
:1034B000C01A5241030A8B4201D30B02C01A524177
:1034C000CDD2C3098B4201D3CB01C01A524183092B
:1034D0008B4201D38B01C01A524143098B4201D365
:1034E0004B01C01A524103098B4201D30B01C01A90
:1034F0005241C3088B4201D3CB00C01A524183080A
:103500008B4201D38B00C01A524143088B4201D336
:103510004B00C01A5241411A00D201465241104696
:103520007047FFE701B5002000F006F802BDC04675
:103530000029F7D076E770477047C0468446081CDC
:103540006146FFE71FB500F0EFF9002801D4002124
:10355000C8421FBD10B500F07BF94042013010BDDC
:1035600010B500F0E1F9002801DB002010BD0120BA
:1035700010BDC04610B500F0D7F9002801DD0020CD
:1035800010BD012010BDC04610B500F089F900281B
:1035900001DC002010BD012010BDC04610B500F0B8
:1035A0007FF9002801DA002010BD012010BDC046BF
:1035B0001C2101231B04984201D3000C10391B0A63
:1035C000984201D3000A08391B09984201D3000927
:1035D000043902A2105C40187047C046040302027E
:1035E0000101010100000000000000009E2110B553
:1035F000C905041CFFF7D2FF002803D1201C00F0EE
:1036000071FC10BD9E21201CC90500F0E5FA00F0F8
:1036100069FC80231B069C466044F2E7F0B55646E1
:1036200044465F464D46F0B444024600C70F83B09F
:103630008846650A360EBA463DD0FF2E22D00023BA
:10364000EC00802599469B46ED0425437F3E43468A
:103650005C025800DB0F640A000E984636D0FF2843
:1036600030D080230021E400DB041C437F38301A73
:103670000190484642460843724E800030587A40D6
:1036800013008746002D44D108239946063B9B46EC
:10369000DDE70122FF2000241A406402C305640A0A
:1036A000D2071C431443200003B03CBC904699460B
:1036B000A246AB46F0BD002D20D104239946033B22
:1036C0009B46C4E7002C17D1022102E0002C0AD14E
:1036D0000121321A01924A4643460A435A4892004F
:1036E00082587B4097462000FFF762FF431F7630E9
:1036F0009C4040420021BAE70321B8E72800FFF7C9
:1037000057FF431F9D4000237630464299469B4613
:103710009DE70C239946093B9B4698E780240022AD
:10372000E403FF20B9E70024C2468B465A465346BD
:10373000022AAED0032A7DD0012A31D101220020F5
:103740001A400024A9E70122101A1B2856DD1A404E
:1037500000200024A1E78023DB031D424BD18023FE
:10376000DB032B435C02640A3A00FF2095E76D01FE
:103770006001854230D2019A0024013A01921B2255
:103780000127290064006D00002901DBA84201D84F
:103790002D1A3C43013A002AF3D16A1E95412C436D
:1037A00001987F300028CEDD620704D00F2222402E
:1037B000042A00D00434220103D5244A019814407D
:1037C0008030FE2800DD64E70122A401640AC0B253
:1037D0001A4062E72C00A9E72D1A1A220124CFE72C
:1037E0006B02BCD500248023DB031C436402640A03
:1037F0004246FF2051E71C42B3D1F4E721002022CA
:10380000C140101A8440621E94410C43620704D0E8
:103810000F222240042A00D00434620104D5012280
:1038200001201A40002438E70122A401640A1A404A
:10383000002032E78023DB031C436402640A524603
:10384000FF202AE784450000C4450000FFFFFFF782
:10385000430270B542004C005D0AC30F4802120ECD
:10386000460A240EC90FFF2A0FD0FF2C11D00120C9
:10387000A24200D070BDB542FCD18B420DD0002ACF
:10388000F8D12800431E9841F4E70120002DF1D122
:10389000EBE70120002EEDD1E9E70020EAE7C04682
:1038A0004302F0B542005D0AC30F4802440A4800D3
:1038B000120E000EC90FFF2A1FD0FF2822D0002AA7
:1038C00009D16E426E4100280FD1002C0DD100208D
:1038D000002D09D005E0002801D1002C01D08B4239
:1038E00013D0584201231843F0BD002EF7D04842B0
:1038F0004141012049420843F6E7002DDDD0022076
:103900004042F1E7002CDAD0F9E78242E9DC04DB3F
:10391000A542E6D80020A542E6D258424341012004
:103920005B421843E0E7C0464302F0B542004C005A
:103930005E0AC30F4802120E450A240EC90FFF2A61
:1039400017D0FF2C19D0002A0BD170427041002CE7
:1039500017D0002807D0484241410120494208437E
:10396000F0BD002C13D08B4214D0584201231843D1
:10397000F6E70220002EF3D1E3E70220002DEFD17D
:10398000E1E7002DE5D10020002EE9D0EDE7002D84
:10399000E9D1EAE7A242E8DC04DBAE42E5D8002048
:1039A000AE42DDD25842434101205B421843D7E783
:1039B000F0B557464E4645464300E0B446028846B9
:1039C000760A1F0EC40F002F47D0FF2F25D00023EB
:1039D00080259A469946F600ED042E437F3F4346E4
:1039E00042465D02D20F5B006D0A1B0E904640D02E
:1039F000FF2B39D080220020ED00D20415437F3BFD
:103A0000FB1842465746591C62408C4607430F2F0D
:103A10005CD86F49BF00C9598F46002E45D1082395
:103A20009A46063B9946DAE7424602282DD00328FB
:103A300000D1C3E0012800D0A2E00025002602400A
:103A4000D4B27602ED05760A2E43E4072643300011
:103A50001CBC90469946A246F0BD002E1AD1042304
:103A60009A46033B9946BAE72A00511E8A41901CA8
:103A7000C6E70120002DC3D02800FFF799FD431FA2
:103A800076309D4043420020BAE70124FF251440D0
:103A90000026D6E73000FFF78BFD431F9E40002332
:103AA000763047429A46994699E70C239A46093B55
:103AB000994694E780260024F603FF25C1E73500E8
:103AC0004846B2E7350022004846AEE72904090C13
:103AD0000800370C3604360C2C0C794370436743CE
:103AE0007443060C64183619B14203D98021490287
:103AF000884647440004000C310409188D01681EF3
:103B00008541890E2943350CED19AD010D4329017D
:103B100004D5012369081D4063460D4319007F3118
:103B2000002925DD680704D00F202840042800D094
:103B30000435280103D5274980330D401900FE299B
:103B4000A3DC0124AD016E0A1440CDB279E78020D8
:103B5000C003064207D0054205D128434602760A33
:103B60004446FF256DE706437602760AFF2568E79F
:103B70000124611A1B2905DD14400025002660E799
:103B80006346CBE72E002023CE40591A8D406B1E92
:103B90009D412E43730704D00F233340042B00D0E4
:103BA0000436730104D5012401251440002648E79A
:103BB0000124B601760A1440002542E7802601243C
:103BC000F6032E437602760A1440FF2539E7C046F5
:103BD00004460000FFFFFFF7F8B54A024E0043021B
:103BE0004400240EC50F9B09360EC90F9209FF2E03
:103BF00000D183E001204140A01BA9425CD00028F5
:103C000000DC95E0002E1CD1002A00D081E05A078C
:103C100004D00F221A40042A00D004335A013BD5A5
:103C20000134FF2C00D191E001209B015B0AE4B23A
:103C300005405B02E4055B0AED0723432B431800B4
:103C4000F8BDFF2CE3D08021C9040A431B2800DD06
:103C500090E016002021C640081A8240511E8A4179
:103C600032439B1A5A0115D59B019E093000FFF77C
:103C70009FFC0538864084426CDC041B3300202006
:103C80000134E340041BA640721E964100243343D6
:103C9000BDE70D005A07BCD1DF0801231D40FF2CF2
:103CA00033D1002F00D190E08022D20313003B4398
:103CB0005B025B0AFF24BCE700284FDD002E2ED0FC
:103CC000FF2CA4D08025ED042A431B2800DD97E0BB
:103CD00016002025C640281A8240501E82413243D9
:103CE0009B185A01D5D50134FF2C6DD001227B4899
:103CF0001A405B08034013430D0088E7002A00D0F8
:103D00007AE777E7031EC5D100257B025B0AE4B2A0
:103D10008FE701380028A4D0FF2C97D177E7002A3D
:103D200000D174E701380028DAD0FF2CCDD16EE73E
:103D3000002821D1601CC0B2012858DD80279E1ABE
:103D4000FF0437402FD0D61A0D008FE701231D4006
:103D500000236EE7624B241A334058E7002851D104
:103D6000601CC6B2012E33DDFF282DD09B185B08E6
:103D700004004CE7012274E7002C1AD0FF2E1FD05C
:103D80008024E404404223431B2800DD96E01D000C
:103D90002024C540201A8340581E83412B43D31A48
:103DA00034000D005EE7002E00D05FE70025002400
:103DB000ABE7002B44D0C0430028F0D0FF2EE3D166
:103DC0001300FF240D0022E70D00FF24002330E73D
:103DD000002C5DD1002B7DD0002A00D117E79B1865
:103DE0005A0100D456E73E4A040013400FE7002C66
:103DF0001ED1002B2FD1002A65D013000D0006E73D
:103E000001226DE7002C1FD1002B59D0C0430028A0
:103E10000BD0FF2E4FD01B285EDC1D002024C54098
:103E2000201A8340581E83412B439B18340058E7C7
:103E3000002B1CD1002A49D013000D00FF24E6E618
:103E4000130034000D00E2E6FF2E34D08024E40499
:103E500040422343DFE7002A00D1D8E68027981AA2
:103E6000FF04074000D14DE7D31A0D00CFE6FF2431
:103E7000002A00D1CBE68020DB08C003034204D037
:103E8000D208024201D113000D00DB00FF24BEE680
:103E9000002B10D0FF24002A00D1B8E68020DB08D8
:103EA000C003034203D0D208024200D11300DB005A
:103EB0000D00FF24ABE61300FF24A8E601236EE704
:103EC00013003400A3E6002700251EE78027002505
:103ED000FF03E9E613009AE60123A6E7FFFFFF7D53
:103EE000FFFFFFFB4302590A4300C20F1B0E0020D5
:103EF0007E2B0EDD9D2B0DDC802000040143952BD5
:103F00000BDC9620C31AD9400B005842002A00D17E
:103F100018007047034BD018FBE7963B99400B0005
:103F2000F3E7C046FFFFFF7F70B5002830D0C3170E
:103F3000C5185D40C40F2800FFF73AFB9E231B1AEB
:103F4000962B0DDC9622D21A95406A02520AD8B2FC
:103F50005202C005520AE40702432243100070BD1A
:103F6000992B19DC9922D21A9540124A2A406907E6
:103F700004D00F210D40042D00D00432510103D58F
:103F80000C4B1A409F231B1A9201520AD8B2DFE74A
:103F9000002400200022DBE705222E00121AB9219E
:103FA000D6402A00C91A8A40551EAA413500154339
:103FB000DBE7C046FFFFFFFB70B5041E28D0FFF70C
:103FC000F7FA9E231B1A962B0ADC9622D21A9440EB
:103FD0006202520AD8B25202520AC005104370BDA2
:103FE000992B18DC9922D21A9440114A2240610779
:103FF00004D00F210C40042C00D00432510103D511
:104000000B4B1A409F231B1A9201520AD8B2E2E7C7
:1040100000200022DFE705222500121AB921D54031
:104020002200C91A8A40541EA2412C001443DCE726
:10403000FFFFFFFB0B0010B50100180000F008F8AF
:1040400010BD10B50A22002100F0EAF810BDFFFFF4
:1040500070B5054C05001300201E04D00A00022094
:10406000290000E000BF70BD000000000E4B70B5DD
:1040700000251E000D4CE41AA410A54204D0AB008C
:10408000F35898470135F8E700F092FB084B0025FC
:104090001E00084CE41AA410A54204D0AB00F3584B
:1040A00098470135F8E770BDBC470000BC470000E9
:1040B000BC470000D4470000EC300068704782B075
:1040C000002900D101A9101E09D0002B05D01378BA
:1040D0000B601078431E984101E00220404202B07C
:1040E0007047002310B59A4203D0CC5CC45401330E
:1040F000F9E710BD0023C25C0133002AFBD1581E32
:104100007047FFFFF0B51F000E0087B005900391C8
:1041100002920C983478FFF7CFFF082300194078FB
:10412000751C184001D02E00F3E72D2C04D1073B5D
:10413000B51C7478019304E001902B2C01D17478A4
:10414000B51C002F02D0102F0AD162E0302C5ED1B6
:1041500020222B789343582B54D110276C780235AA
:10416000019E3900731E9E412C4BF6183000FFF75C
:10417000DFF9300004913900FFF754F90023020001
:10418000180021003039092901D80C000AE021006B
:104190004139192901D8373C04E021006139192936
:1041A00014D8573CA74211DD591C0CD0824208D3C9
:1041B00002D1049BA34203DB78430123201802E0D1
:1041C000100001235B422C780135DAE75A1C0BD131
:1041D0000198124B471EB841C0182223059A13605C
:1041E000029B002B0AD117E0019A002A00D040421E
:1041F000029A002A10D0039A002B00D06A1E029B5C
:104200001A6009E03024002FAAD10827A8E70A275E
:10421000A6E7302C9CD0A3E707B0F0BDFFFFFF7FDF
:1042200037B51300064A05001068046A002C00D157
:10423000044C0A0000942900FFF764FF3EBDC0460D
:1042400038FEFF1F3CFEFF1F0B1E07D0FF2A03D9BD
:104250008A2303608B3B01E001230A70180070473A
:104260003A50003A42003A4D00506C6179696E67ED
:1042700020736F756E642000050E08090D0C06078B
:104280000F0B004417FF050E08090D0C06070F0B56
:10429000004417FFFFFFFFFFFFFFFFFFFFFF1A1B99
:1042A000420000F840A0044001000000420000F875
:1042B00044A0044002000000C00000F800C0044018
:1042C00001000000000000F804900440020000001B
:1042D000000000F80890044004000000C00000F84E
:1042E0001CC0044080000000C00000F810C0044062
:1042F00010000000C00000F808C0044004000000E6
:10430000C00000F80CC0044008000000800000F865
:104310000CB0044008000000800000F810B0044019
:1043200010000000800000F818B0044040000000B9
:10433000800000F81CB0044080000000800000F8FD
:1043400014B0044020000000C00000F804C0044085
:1043500002000000800000F800B0044001000000EE
:10436000400000F800A0044001000000400000F8F8
:1043700004A0044002000000400000F80CA004402B
:1043800008000000400000F808A0044004000000FD
:10439000C00000F814C0044020000000C00000F875
:1043A00018C0044040000000800000F804B0044041
:1043B00002000000800000F808B004400400000083
:1043C000020100F850D0044010000000020100F883
:1043D00054D0044020000000030100F878D00440CD
:1043E000400000000D0AFFFF000000000000000078
:1043F000C11B0000B51B0000AD1B0000A51B000089
:104400009D1B0000951B00008D1B00000015191559
:104410000001000030FDFF1F12000000000200003C
:104420005AFDFF1F4300000000030000B4FDFF1F02
:10443000000000000103090442FDFF1F000000000E
:10444000020309049EFDFF1F00000000030309048E
:10445000B8FDFF1F00000000000000000000000089
:104460000000000000000000000000002D2F0000F0
:10447000512F00000930000001300000F92F00002A
:10448000F12F0000B92F0000D12F0000B12F000044
:10449000A72F00009D2F0000912F0000812F00000A
:1044A000712F0000692F0000612F0000F12E000025
:1044B000FD2E0000092F0000152F0000392F0000ED
:1044C000212F000000000000000000006D300000FF
:1044D00091300000493100004131000039310000C5
:1044E00031310000F930000011310000F1300000DE
:1044F000E7300000DD300000D1300000C1300000A6
:10450000B1300000A9300000A130000031300000BF
:104510003D30000049300000553000007930000087
:10452000613000000000000000000000AD3100001C
:10453000D131000089320000813200007932000060
:104540007132000039320000513200003132000077
:10455000273200001D32000011320000013200003D
:10456000F1310000E9310000E1310000713100005B
:104570007D3100008931000095310000B931000023
:10458000A13100006E370000923600005037000065
:1045900028370000503700001C370000503700005B
:1045A0002837000092360000923600001C370000C9
:1045B00028370000D4370000D4370000D43700007B
:1045C0005637000092360000923600003C3700005B
:1045D000263700003C3700001C3700003C37000045
:1045E0002637000092360000923600001C3700008B
:1045F00026370000D4370000D4370000D43700003D
:10460000E0370000CC3A00002A3A00002A3A0000C5
:10461000283A0000BE3A0000BE3A0000B43A00005A
:10462000283A0000BE3A0000B43A0000BE3A00004A
:10463000283A0000C43A0000C43A0000C43A00001E
:104640004E3B00004300504F534958002E000020BD
:104650002020202020202020282828282820202032
:1046600020202020202020202020202020202088E2
:104670001010101010101010101010101010100446
:104680000404040404040404041010101010101096
:10469000414141414141010101010101010101018A
:1046A00001010101010101010101101010101010A0
:1046B000424242424242020202020202020202025A
:1046C0000202020202020202020210101010200076
:1046D00000000000000000000000000000000000DA
:1046E00000000000000000000000000000000000CA
:1046F00000000000000000000000000000000000BA
:1047000000000000000000000000000000000000A9
:104710000000000000000000000000000000000099
:104720000000000000000000000000000000000089
:104730000000000000000000000000000000000079
:10474000000000000000000000000000000000FF6A
:104750000000000000000000000000000000000059
:104760000000000000000000000000000000000049
:104770000000000000000000000000000000000039
:104780000000000000000000000000000000000029
:104790000000000000000000000000000000000019
:1047A0000000000000000000000000000000000009
:1047B000F8B5C046F8BC08BC9E46704739040000F6
:1047C000591B0000CD1B00001530000055310000C2
:0447D000953200001E
:0447D400F8B5C0462E
:1047D800000000000A040000FFFFFFFFFF010708B8
:1047E8001201010102000040C01683040002010208
:1047F800030118035400650065006E00730079001A
:104808006400750069006E006F0009024300020130
:1048180000C0320904000001020201000524001052
:1048280001052401010104240206052406000107EC
:1048380005820310004009040100020A0000000775
:10484800050302400000070584024000000016032B
:1048580055005300420020005300650072006900B3
:1048680061006C00040309040C0300000000000050
:104878000000000000000000000000000000FFFF32
:10488800B1320000B13200000000000050470000C3
:104898007047000090470000000000000000000082
:1048A8000000000000000000000000000000000000
:1048B80000000000000000000000000000000000F0
:1048C80000000000000000000000000000000000E0
:1048D80000000000000000000000000000000000D0
:1048E8000000000000000000D8FDFF1F430000008A
:1048F80000000000000000000000000000000000B0
:10490800000000000000000000000000430000005C
:10491800000000000000000000000000000000008F
:10492800000000000000000000000000430000003C
:10493800000000000000000000000000000000006F
:10494800000000000000000000000000430000001C
:10495800000000000000000000000000000000004F
:1049680000000000000000000000000043000000FC
:10497800000000000000000000000000000000002F
:1049880000000000000000000000000043000000DC
:10499800000000000000000000000000000000000F
:1049A80000000000000000000000000043000000BC
:1049B80000000000000000000000000000000000EF
:1049C8000000000000000000000000004942000054
:1049D800BF400000000000004E4600004C460000AA
:1049E80077420000774200007742000077420000DB
:1049F80077420000774200007742000077420000CB
:104A080077420000FFFFFFFFFFFFFFFFFFFFFFFFF1
:104A1800FFFF000001004153434949000000000026
:104A2800000000000000000000000000000000007E
:104A38000000000000004153434949000000000005
:104A4800000000000000000000000000000000005E
:084A5800000000000000000056
:00000001FF
